{
    "contractName": "FactoryInfo",
    "abi": [
        {
            "constant": false,
            "inputs": [
                {
                    "internalType": "address",
                    "name": "_addr",
                    "type": "address"
                }
            ],
            "name": "setStorageAddress",
            "outputs": [],
            "payable": false,
            "stateMutability": "nonpayable",
            "type": "function"
        },
        {
            "constant": false,
            "inputs": [
                {
                    "internalType": "bytes",
                    "name": "_id",
                    "type": "bytes"
                },
                {
                    "internalType": "bytes",
                    "name": "_date",
                    "type": "bytes"
                },
                {
                    "internalType": "bytes",
                    "name": "_cert",
                    "type": "bytes"
                },
                {
                    "internalType": "bytes",
                    "name": "_lvl",
                    "type": "bytes"
                },
                {
                    "internalType": "bytes",
                    "name": "_hash",
                    "type": "bytes"
                },
                {
                    "internalType": "bytes",
                    "name": "_weight",
                    "type": "bytes"
                }
            ],
            "name": "setInFactory",
            "outputs": [],
            "payable": false,
            "stateMutability": "nonpayable",
            "type": "function"
        },
        {
            "constant": false,
            "inputs": [
                {
                    "internalType": "bytes",
                    "name": "_id",
                    "type": "bytes"
                },
                {
                    "internalType": "bytes",
                    "name": "_date",
                    "type": "bytes"
                },
                {
                    "internalType": "bytes",
                    "name": "_hash",
                    "type": "bytes"
                },
                {
                    "internalType": "bytes",
                    "name": "_weight",
                    "type": "bytes"
                }
            ],
            "name": "setOutFactory",
            "outputs": [],
            "payable": false,
            "stateMutability": "nonpayable",
            "type": "function"
        },
        {
            "constant": true,
            "inputs": [
                {
                    "internalType": "bytes",
                    "name": "_id",
                    "type": "bytes"
                }
            ],
            "name": "getInfo",
            "outputs": [
                {
                    "internalType": "bytes[]",
                    "name": "",
                    "type": "bytes[]"
                },
                {
                    "internalType": "bytes[]",
                    "name": "",
                    "type": "bytes[]"
                }
            ],
            "payable": false,
            "stateMutability": "view",
            "type": "function"
        }
    ],
    "bytecode": "0x608060405234801561001057600080fd5b50611262806100206000396000f3fe608060405234801561001057600080fd5b506004361061004c5760003560e01c806352ef4b141461005157806359b910d61461008257806385cf07a91461009e578063bca8db91146100ba575b600080fd5b61006b60048036036100669190810190610ce7565b6100d6565b604051610079929190610fff565b60405180910390f35b61009c60048036036100979190810190610c13565b610470565b005b6100b860048036036100b39190810190610d28565b6104b3565b005b6100d460048036036100cf9190810190610deb565b61071a565b005b6060806060600860405190808252806020026020018201604052801561011057816020015b60608152602001906001900390816100fb5790505b5090506060600860405190808252806020026020018201604052801561014a57816020015b60608152602001906001900390816101355790505b509050610155610b19565b6040518061010001604052806040518060400160405280600d81526020017f696e466163746f727954696d650000000000000000000000000000000000000081525081526020016040518060400160405280600781526020017f636172436572740000000000000000000000000000000000000000000000000081525081526020016040518060400160405280600581526020017f6c6576656c00000000000000000000000000000000000000000000000000000081525081526020016040518060400160405280600981526020017f696e50696348617368000000000000000000000000000000000000000000000081525081526020016040518060400160405280600881526020017f696e57656967687400000000000000000000000000000000000000000000000081525081526020016040518060400160405280600e81526020017f6f7574466163746f727954696d6500000000000000000000000000000000000081525081526020016040518060400160405280600a81526020017f6f7574506963486173680000000000000000000000000000000000000000000081525081526020016040518060400160405280600981526020017f6f75745765696768740000000000000000000000000000000000000000000000815250815250905060008090505b600881101561046157600060608060606000809054906101000a900473ffffffffffffffffffffffffffffffffffffffff1673ffffffffffffffffffffffffffffffffffffffff166381ba85f98c88886008811061039957fe5b60200201516040518363ffffffff1660e01b81526004016103bb929190611036565b60006040518083038186803b1580156103d357600080fd5b505afa1580156103e7573d6000803e3d6000fd5b505050506040513d6000823e3d601f19601f820116820180604052506104109190810190610c3c565b809450819550829650839750505050508188868151811061042d57fe5b60200260200101819052508087868151811061044557fe5b602002602001018190525050505050808060010191505061033f565b50828294509450505050915091565b806000806101000a81548173ffffffffffffffffffffffffffffffffffffffff021916908373ffffffffffffffffffffffffffffffffffffffff16021790555050565b60606040518060400160405280600e81526020017f6f7574466163746f727954696d65000000000000000000000000000000000000815250905060606040518060400160405280600a81526020017f6f75745069634861736800000000000000000000000000000000000000000000815250905060606040518060400160405280600981526020017f6f7574576569676874000000000000000000000000000000000000000000000081525090506000809054906101000a900473ffffffffffffffffffffffffffffffffffffffff1673ffffffffffffffffffffffffffffffffffffffff1663aad22a708885896040518463ffffffff1660e01b81526004016105bf9392919061106d565b600060405180830381600087803b1580156105d957600080fd5b505af11580156105ed573d6000803e3d6000fd5b505050506000809054906101000a900473ffffffffffffffffffffffffffffffffffffffff1673ffffffffffffffffffffffffffffffffffffffff1663aad22a708884886040518463ffffffff1660e01b815260040161064f9392919061106d565b600060405180830381600087803b15801561066957600080fd5b505af115801561067d573d6000803e3d6000fd5b505050506000809054906101000a900473ffffffffffffffffffffffffffffffffffffffff1673ffffffffffffffffffffffffffffffffffffffff1663aad22a708883876040518463ffffffff1660e01b81526004016106df9392919061106d565b600060405180830381600087803b1580156106f957600080fd5b505af115801561070d573d6000803e3d6000fd5b5050505050505050505050565b60606040518060400160405280600d81526020017f696e466163746f727954696d6500000000000000000000000000000000000000815250905060606040518060400160405280600781526020017f6361724365727400000000000000000000000000000000000000000000000000815250905060606040518060400160405280600581526020017f6c6576656c000000000000000000000000000000000000000000000000000000815250905060606040518060400160405280600981526020017f696e506963486173680000000000000000000000000000000000000000000000815250905060606040518060400160405280600881526020017f696e57656967687400000000000000000000000000000000000000000000000081525090506000809054906101000a900473ffffffffffffffffffffffffffffffffffffffff1673ffffffffffffffffffffffffffffffffffffffff1663aad22a708c878d6040518463ffffffff1660e01b815260040161089a9392919061106d565b600060405180830381600087803b1580156108b457600080fd5b505af11580156108c8573d6000803e3d6000fd5b505050506000809054906101000a900473ffffffffffffffffffffffffffffffffffffffff1673ffffffffffffffffffffffffffffffffffffffff1663aad22a708c868c6040518463ffffffff1660e01b815260040161092a9392919061106d565b600060405180830381600087803b15801561094457600080fd5b505af1158015610958573d6000803e3d6000fd5b505050506000809054906101000a900473ffffffffffffffffffffffffffffffffffffffff1673ffffffffffffffffffffffffffffffffffffffff1663aad22a708c858b6040518463ffffffff1660e01b81526004016109ba9392919061106d565b600060405180830381600087803b1580156109d457600080fd5b505af11580156109e8573d6000803e3d6000fd5b505050506000809054906101000a900473ffffffffffffffffffffffffffffffffffffffff1673ffffffffffffffffffffffffffffffffffffffff1663aad22a708c848a6040518463ffffffff1660e01b8152600401610a4a9392919061106d565b600060405180830381600087803b158015610a6457600080fd5b505af1158015610a78573d6000803e3d6000fd5b505050506000809054906101000a900473ffffffffffffffffffffffffffffffffffffffff1673ffffffffffffffffffffffffffffffffffffffff1663aad22a708c83896040518463ffffffff1660e01b8152600401610ada9392919061106d565b600060405180830381600087803b158015610af457600080fd5b505af1158015610b08573d6000803e3d6000fd5b505050505050505050505050505050565b6040518061010001604052806008905b6060815260200190600190039081610b295790505090565b600081359050610b5081611208565b92915050565b600081519050610b6581611208565b92915050565b600082601f830112610b7c57600080fd5b8135610b8f610b8a826110e6565b6110b9565b91508082526020830160208301858383011115610bab57600080fd5b610bb68382846111b5565b50505092915050565b600082601f830112610bd057600080fd5b8151610be3610bde826110e6565b6110b9565b91508082526020830160208301858383011115610bff57600080fd5b610c0a8382846111c4565b50505092915050565b600060208284031215610c2557600080fd5b6000610c3384828501610b41565b91505092915050565b60008060008060808587031215610c5257600080fd5b6000610c6087828801610b56565b945050602085015167ffffffffffffffff811115610c7d57600080fd5b610c8987828801610bbf565b935050604085015167ffffffffffffffff811115610ca657600080fd5b610cb287828801610bbf565b925050606085015167ffffffffffffffff811115610ccf57600080fd5b610cdb87828801610bbf565b91505092959194509250565b600060208284031215610cf957600080fd5b600082013567ffffffffffffffff811115610d1357600080fd5b610d1f84828501610b6b565b91505092915050565b60008060008060808587031215610d3e57600080fd5b600085013567ffffffffffffffff811115610d5857600080fd5b610d6487828801610b6b565b945050602085013567ffffffffffffffff811115610d8157600080fd5b610d8d87828801610b6b565b935050604085013567ffffffffffffffff811115610daa57600080fd5b610db687828801610b6b565b925050606085013567ffffffffffffffff811115610dd357600080fd5b610ddf87828801610b6b565b91505092959194509250565b60008060008060008060c08789031215610e0457600080fd5b600087013567ffffffffffffffff811115610e1e57600080fd5b610e2a89828a01610b6b565b965050602087013567ffffffffffffffff811115610e4757600080fd5b610e5389828a01610b6b565b955050604087013567ffffffffffffffff811115610e7057600080fd5b610e7c89828a01610b6b565b945050606087013567ffffffffffffffff811115610e9957600080fd5b610ea589828a01610b6b565b935050608087013567ffffffffffffffff811115610ec257600080fd5b610ece89828a01610b6b565b92505060a087013567ffffffffffffffff811115610eeb57600080fd5b610ef789828a01610b6b565b9150509295509295509295565b6000610f108383610fc6565b905092915050565b6000610f2382611122565b610f2d8185611150565b935083602082028501610f3f85611112565b8060005b85811015610f7b5784840389528151610f5c8582610f04565b9450610f6783611143565b925060208a01995050600181019050610f43565b50829750879550505050505092915050565b6000610f9882611138565b610fa28185611172565b9350610fb28185602086016111c4565b610fbb816111f7565b840191505092915050565b6000610fd18261112d565b610fdb8185611161565b9350610feb8185602086016111c4565b610ff4816111f7565b840191505092915050565b600060408201905081810360008301526110198185610f18565b9050818103602083015261102d8184610f18565b90509392505050565b600060408201905081810360008301526110508185610f8d565b905081810360208301526110648184610f8d565b90509392505050565b600060608201905081810360008301526110878186610f8d565b9050818103602083015261109b8185610f8d565b905081810360408301526110af8184610f8d565b9050949350505050565b6000604051905081810181811067ffffffffffffffff821117156110dc57600080fd5b8060405250919050565b600067ffffffffffffffff8211156110fd57600080fd5b601f19601f8301169050602081019050919050565b6000819050602082019050919050565b600081519050919050565b600081519050919050565b600081519050919050565b6000602082019050919050565b600082825260208201905092915050565b600082825260208201905092915050565b600082825260208201905092915050565b600061118e82611195565b9050919050565b600073ffffffffffffffffffffffffffffffffffffffff82169050919050565b82818337600083830152505050565b60005b838110156111e25780820151818401526020810190506111c7565b838111156111f1576000848401525b50505050565b6000601f19601f8301169050919050565b61121181611183565b811461121c57600080fd5b5056fea365627a7a72315820c52bb462f23af5bd61194a39fe501764f5942d843f527368baa0e5045a60e5ec6c6578706572696d656e74616cf564736f6c63430005100040",
    "source": "pragma solidity ^0.5.16;\npragma experimental ABIEncoderV2;\n\nimport \"./GeneralStorage.sol\";\n\ncontract FactoryInfo  {\n    GeneralStorage generalStorage;\n\n    function setStorageAddress(address _addr) public{\n        generalStorage = GeneralStorage(_addr);\n    }\n\n    function setInFactory(bytes memory _id,bytes memory _date,\n                            bytes memory _cert,bytes memory _lvl,bytes memory _hash,bytes memory _weight) public{\n        string memory inFactoryTime = \"inFactoryTime\";\n        string memory carCert = \"carCert\";\n        string memory level = \"level\";\n        string memory inPicHash = \"inPicHash\";\n        string memory inWeight = \"inWeight\";\n        generalStorage.setStorage(_id,bytes(inFactoryTime),_date);\n        generalStorage.setStorage(_id,bytes(carCert),_cert);\n        generalStorage.setStorage(_id,bytes(level),_lvl);\n        generalStorage.setStorage(_id,bytes(inPicHash),_hash);\n        generalStorage.setStorage(_id,bytes(inWeight),_weight);\n    }\n\n    function setOutFactory(bytes memory _id,bytes memory _date,bytes memory _hash,bytes memory _weight) public{\n        string memory outFactoryTime = \"outFactoryTime\";\n        string memory outPicHash = \"outPicHash\";\n        string memory outWeight = \"outWeight\";\n        generalStorage.setStorage(_id,bytes(outFactoryTime),_date);\n        generalStorage.setStorage(_id,bytes(outPicHash),_hash);\n        generalStorage.setStorage(_id,bytes(outWeight),_weight);\n    }\n\n    function getInfo(bytes memory _id) public view returns(bytes[] memory,bytes[] memory){\n\n        bytes[] memory stages = new bytes[](8);\n        bytes[] memory values = new bytes[](8);\n        string[8] memory list = [\"inFactoryTime\",\"carCert\",\"level\",\"inPicHash\",\"inWeight\",\"outFactoryTime\",\"outPicHash\",\"outWeight\"];\n\n        for (uint i = 0; i < 8; i++) {\n            address from;\n            bytes memory idinfo;\n            bytes memory stage;\n            bytes memory value;\n            (from,idinfo,stage,value) = generalStorage.getStorage(_id,bytes(list[i]));\n            stages[i] = stage;\n            values[i] = value;\n        }\n        return (stages,values);\n    }\n}",
    "sourcePath": "/Users/fieldlee/Downloads/Cita/SolidtyToJson/contracts/FactoryInfo.sol",
    "compiler": {
        "name": "solc",
        "version": "0.5.16+commit.9c3226ce.Emscripten.clang"
    },
    "schemaVersion": "3.2.0",
    "updatedAt": "2020-06-05T01:31:58.585Z",
    "devdoc": {
        "methods": {}
    },
    "userdoc": {
        "methods": {}
    }
}