{
  "contractName": "FactoryInfo",
  "abi": [
    {
      "constant": false,
      "inputs": [
        {
          "internalType": "address",
          "name": "_addr",
          "type": "address"
        }
      ],
      "name": "setStorageAddress",
      "outputs": [],
      "payable": false,
      "stateMutability": "nonpayable",
      "type": "function"
    },
    {
      "constant": false,
      "inputs": [
        {
          "internalType": "bytes",
          "name": "_id",
          "type": "bytes"
        },
        {
          "internalType": "bytes",
          "name": "_date",
          "type": "bytes"
        },
        {
          "internalType": "bytes",
          "name": "_cano",
          "type": "bytes"
        },
        {
          "internalType": "bytes",
          "name": "_cacert",
          "type": "bytes"
        },
        {
          "internalType": "bytes",
          "name": "_driver",
          "type": "bytes"
        },
        {
          "internalType": "bytes",
          "name": "_drivercert",
          "type": "bytes"
        },
        {
          "internalType": "bytes",
          "name": "_weight",
          "type": "bytes"
        }
      ],
      "name": "setInFactory",
      "outputs": [],
      "payable": false,
      "stateMutability": "nonpayable",
      "type": "function"
    },
    {
      "constant": true,
      "inputs": [
        {
          "internalType": "bytes",
          "name": "_id",
          "type": "bytes"
        }
      ],
      "name": "getInFactoryInfo",
      "outputs": [
        {
          "internalType": "bytes[]",
          "name": "",
          "type": "bytes[]"
        },
        {
          "internalType": "bytes[]",
          "name": "",
          "type": "bytes[]"
        }
      ],
      "payable": false,
      "stateMutability": "view",
      "type": "function"
    },
    {
      "constant": false,
      "inputs": [
        {
          "internalType": "bytes",
          "name": "_id",
          "type": "bytes"
        },
        {
          "internalType": "bytes",
          "name": "_pic",
          "type": "bytes"
        }
      ],
      "name": "setInPic",
      "outputs": [],
      "payable": false,
      "stateMutability": "nonpayable",
      "type": "function"
    },
    {
      "constant": true,
      "inputs": [
        {
          "internalType": "bytes",
          "name": "_id",
          "type": "bytes"
        }
      ],
      "name": "getInPic",
      "outputs": [
        {
          "internalType": "bytes",
          "name": "",
          "type": "bytes"
        }
      ],
      "payable": false,
      "stateMutability": "view",
      "type": "function"
    },
    {
      "constant": false,
      "inputs": [
        {
          "internalType": "bytes",
          "name": "_id",
          "type": "bytes"
        },
        {
          "internalType": "bytes",
          "name": "_contracthash",
          "type": "bytes"
        }
      ],
      "name": "setContractHash",
      "outputs": [],
      "payable": false,
      "stateMutability": "nonpayable",
      "type": "function"
    },
    {
      "constant": true,
      "inputs": [
        {
          "internalType": "bytes",
          "name": "_id",
          "type": "bytes"
        }
      ],
      "name": "getContractHash",
      "outputs": [
        {
          "internalType": "bytes",
          "name": "",
          "type": "bytes"
        }
      ],
      "payable": false,
      "stateMutability": "view",
      "type": "function"
    },
    {
      "constant": false,
      "inputs": [
        {
          "internalType": "bytes",
          "name": "_id",
          "type": "bytes"
        },
        {
          "internalType": "bytes",
          "name": "_qclevel",
          "type": "bytes"
        },
        {
          "internalType": "bytes",
          "name": "_qcperson",
          "type": "bytes"
        }
      ],
      "name": "setQc",
      "outputs": [],
      "payable": false,
      "stateMutability": "nonpayable",
      "type": "function"
    },
    {
      "constant": true,
      "inputs": [
        {
          "internalType": "bytes",
          "name": "_id",
          "type": "bytes"
        }
      ],
      "name": "getQc",
      "outputs": [
        {
          "internalType": "bytes[]",
          "name": "",
          "type": "bytes[]"
        },
        {
          "internalType": "bytes[]",
          "name": "",
          "type": "bytes[]"
        }
      ],
      "payable": false,
      "stateMutability": "view",
      "type": "function"
    },
    {
      "constant": false,
      "inputs": [
        {
          "internalType": "bytes",
          "name": "_id",
          "type": "bytes"
        },
        {
          "internalType": "bytes",
          "name": "_date",
          "type": "bytes"
        },
        {
          "internalType": "bytes",
          "name": "_weight",
          "type": "bytes"
        }
      ],
      "name": "setOutFactory",
      "outputs": [],
      "payable": false,
      "stateMutability": "nonpayable",
      "type": "function"
    },
    {
      "constant": true,
      "inputs": [
        {
          "internalType": "bytes",
          "name": "_id",
          "type": "bytes"
        }
      ],
      "name": "getOutFactoryInfo",
      "outputs": [
        {
          "internalType": "bytes[]",
          "name": "",
          "type": "bytes[]"
        },
        {
          "internalType": "bytes[]",
          "name": "",
          "type": "bytes[]"
        }
      ],
      "payable": false,
      "stateMutability": "view",
      "type": "function"
    },
    {
      "constant": false,
      "inputs": [
        {
          "internalType": "bytes",
          "name": "_id",
          "type": "bytes"
        },
        {
          "internalType": "bytes",
          "name": "_pic",
          "type": "bytes"
        }
      ],
      "name": "setOutPic",
      "outputs": [],
      "payable": false,
      "stateMutability": "nonpayable",
      "type": "function"
    },
    {
      "constant": true,
      "inputs": [
        {
          "internalType": "bytes",
          "name": "_id",
          "type": "bytes"
        }
      ],
      "name": "getOutPic",
      "outputs": [
        {
          "internalType": "bytes",
          "name": "",
          "type": "bytes"
        }
      ],
      "payable": false,
      "stateMutability": "view",
      "type": "function"
    },
    {
      "constant": false,
      "inputs": [
        {
          "internalType": "bytes",
          "name": "_id",
          "type": "bytes"
        },
        {
          "internalType": "bytes",
          "name": "_pichash",
          "type": "bytes"
        },
        {
          "internalType": "bytes",
          "name": "_fundid",
          "type": "bytes"
        },
        {
          "internalType": "bytes",
          "name": "_fundvalue",
          "type": "bytes"
        }
      ],
      "name": "setFund",
      "outputs": [],
      "payable": false,
      "stateMutability": "nonpayable",
      "type": "function"
    },
    {
      "constant": true,
      "inputs": [
        {
          "internalType": "bytes",
          "name": "_id",
          "type": "bytes"
        }
      ],
      "name": "getFund",
      "outputs": [
        {
          "internalType": "bytes[]",
          "name": "",
          "type": "bytes[]"
        },
        {
          "internalType": "bytes[]",
          "name": "",
          "type": "bytes[]"
        }
      ],
      "payable": false,
      "stateMutability": "view",
      "type": "function"
    },
    {
      "constant": true,
      "inputs": [
        {
          "internalType": "bytes",
          "name": "_id",
          "type": "bytes"
        }
      ],
      "name": "getInfo",
      "outputs": [
        {
          "internalType": "bytes[]",
          "name": "",
          "type": "bytes[]"
        },
        {
          "internalType": "bytes[]",
          "name": "",
          "type": "bytes[]"
        }
      ],
      "payable": false,
      "stateMutability": "view",
      "type": "function"
    }
  ],
  "bytecode": "0x60806040526040518060400160405280600d81526020017f696e466163746f727954696d65000000000000000000000000000000000000008152506001908051906020019062000051929190620004f8565b506040518060400160405280600581526020017f6361724e6f000000000000000000000000000000000000000000000000000000815250600290805190602001906200009f929190620004f8565b506040518060400160405280600781526020017f636172436572740000000000000000000000000000000000000000000000000081525060039080519060200190620000ed929190620004f8565b506040518060400160405280600681526020017f6472697665720000000000000000000000000000000000000000000000000000815250600490805190602001906200013b929190620004f8565b506040518060400160405280600a81526020017f64726976657243657274000000000000000000000000000000000000000000008152506005908051906020019062000189929190620004f8565b506040518060400160405280600881526020017f696e57656967687400000000000000000000000000000000000000000000000081525060069080519060200190620001d7929190620004f8565b506040518060400160405280600981526020017f696e5069634861736800000000000000000000000000000000000000000000008152506007908051906020019062000225929190620004f8565b506040518060400160405280600781526020017f71634c6576656c000000000000000000000000000000000000000000000000008152506008908051906020019062000273929190620004f8565b506040518060400160405280600881526020017f7163506572736f6e00000000000000000000000000000000000000000000000081525060099080519060200190620002c1929190620004f8565b506040518060400160405280600e81526020017f6f7574466163746f727954696d65000000000000000000000000000000000000815250600a90805190602001906200030f929190620004f8565b506040518060400160405280600a81526020017f6f75745069634861736800000000000000000000000000000000000000000000815250600b90805190602001906200035d929190620004f8565b506040518060400160405280600981526020017f6f75745765696768740000000000000000000000000000000000000000000000815250600c9080519060200190620003ab929190620004f8565b506040518060400160405280600b81526020017f66756e6450696348617368000000000000000000000000000000000000000000815250600d9080519060200190620003f9929190620004f8565b506040518060400160405280600681526020017f66756e6449640000000000000000000000000000000000000000000000000000815250600e908051906020019062000447929190620004f8565b506040518060400160405280600981526020017f66756e6456616c75650000000000000000000000000000000000000000000000815250600f908051906020019062000495929190620004f8565b506040518060400160405280600c81526020017f636f6e747261637448617368000000000000000000000000000000000000000081525060109080519060200190620004e3929190620004f8565b50348015620004f157600080fd5b50620005a7565b828054600181600116156101000203166002900490600052602060002090601f016020900481019282601f106200053b57805160ff19168380011785556200056c565b828001600101855582156200056c579182015b828111156200056b5782518255916020019190600101906200054e565b5b5090506200057b91906200057f565b5090565b620005a491905b80821115620005a057600081600090555060010162000586565b5090565b90565b6128c780620005b76000396000f3fe608060405234801561001057600080fd5b50600436106101005760003560e01c80639474a57211610097578063c95f232b11610066578063c95f232b146102d1578063d0ee6fb914610301578063dc1722ad1461031d578063e0d55ab01461034e57610100565b80639474a5721461024d578063a83a36f314610269578063b72faa0314610285578063c7804cec146102a157610100565b806352a17003116100d357806352a17003146101b357806352ef4b14146101e457806359b910d61461021557806361bb2f081461023157610100565b806307a1f6a9146101055780632c4a10c9146101355780633b61a08e146101665780633ee9f20814610182575b600080fd5b61011f600480360361011a919081019061211f565b61036a565b60405161012c919061262d565b60405180910390f35b61014f600480360361014a919081019061211f565b610441565b60405161015d9291906125f6565b60405180910390f35b610180600480360361017b9190810190612160565b6106b3565b005b61019c6004803603610197919081019061211f565b610748565b6040516101aa9291906125f6565b60405180910390f35b6101cd60048036036101c8919081019061211f565b61097f565b6040516101db9291906125f6565b60405180910390f35b6101fe60048036036101f9919081019061211f565b610ca2565b60405161020c9291906125f6565b60405180910390f35b61022f600480360361022a919081019061204b565b611214565b005b61024b60048036036102469190810190612160565b611257565b005b610267600480360361026291908101906121cc565b6112ec565b005b610283600480360361027e9190810190612263565b611413565b005b61029f600480360361029a91908101906121cc565b6115cc565b005b6102bb60048036036102b6919081019061211f565b6116f3565b6040516102c8919061262d565b60405180910390f35b6102eb60048036036102e6919081019061211f565b6117ca565b6040516102f8919061262d565b60405180910390f35b61031b60048036036103169190810190612160565b6118a1565b005b6103376004803603610332919081019061211f565b611936565b6040516103459291906125f6565b60405180910390f35b61036860048036036103639190810190612326565b611b6d565b005b6060600060608060606000809054906101000a900473ffffffffffffffffffffffffffffffffffffffff1673ffffffffffffffffffffffffffffffffffffffff166381ba85f987600b6040518363ffffffff1660e01b81526004016103d0929190612686565b60006040518083038186803b1580156103e857600080fd5b505afa1580156103fc573d6000803e3d6000fd5b505050506040513d6000823e3d601f19601f820116820180604052506104259190810190612074565b8094508195508296508397505050505080945050505050919050565b6060806060600360405190808252806020026020018201604052801561047b57816020015b60608152602001906001900390816104665790505b509050606060036040519080825280602002602001820160405280156104b557816020015b60608152602001906001900390816104a05790505b5090506104c0611edc565b60405180606001604052806040518060400160405280600b81526020017f66756e645069634861736800000000000000000000000000000000000000000081525081526020016040518060400160405280600681526020017f66756e644964000000000000000000000000000000000000000000000000000081525081526020016040518060400160405280600981526020017f66756e6456616c75650000000000000000000000000000000000000000000000815250815250905060008090505b60038110156106a457600060608060606000809054906101000a900473ffffffffffffffffffffffffffffffffffffffff1673ffffffffffffffffffffffffffffffffffffffff166381ba85f98c8888600381106105dc57fe5b60200201516040518363ffffffff1660e01b81526004016105fe92919061264f565b60006040518083038186803b15801561061657600080fd5b505afa15801561062a573d6000803e3d6000fd5b505050506040513d6000823e3d601f19601f820116820180604052506106539190810190612074565b809450819550829650839750505050508188868151811061067057fe5b60200260200101819052508087868151811061068857fe5b6020026020010181905250505050508080600101915050610582565b50828294509450505050915091565b6000809054906101000a900473ffffffffffffffffffffffffffffffffffffffff1673ffffffffffffffffffffffffffffffffffffffff1663aad22a7083600b846040518463ffffffff1660e01b8152600401610712939291906126bd565b600060405180830381600087803b15801561072c57600080fd5b505af1158015610740573d6000803e3d6000fd5b505050505050565b6060806060600260405190808252806020026020018201604052801561078257816020015b606081526020019060019003908161076d5790505b509050606060026040519080825280602002602001820160405280156107bc57816020015b60608152602001906001900390816107a75790505b5090506107c7611f03565b60405180604001604052806040518060400160405280600781526020017f71634c6576656c0000000000000000000000000000000000000000000000000081525081526020016040518060400160405280600881526020017f7163506572736f6e000000000000000000000000000000000000000000000000815250815250905060008090505b600281101561097057600060608060606000809054906101000a900473ffffffffffffffffffffffffffffffffffffffff1673ffffffffffffffffffffffffffffffffffffffff166381ba85f98c8888600281106108a857fe5b60200201516040518363ffffffff1660e01b81526004016108ca92919061264f565b60006040518083038186803b1580156108e257600080fd5b505afa1580156108f6573d6000803e3d6000fd5b505050506040513d6000823e3d601f19601f8201168201806040525061091f9190810190612074565b809450819550829650839750505050508188868151811061093c57fe5b60200260200101819052508087868151811061095457fe5b602002602001018190525050505050808060010191505061084e565b50828294509450505050915091565b606080606060066040519080825280602002602001820160405280156109b957816020015b60608152602001906001900390816109a45790505b509050606060066040519080825280602002602001820160405280156109f357816020015b60608152602001906001900390816109de5790505b5090506109fe611f2a565b6040518060c001604052806040518060400160405280600d81526020017f696e466163746f727954696d650000000000000000000000000000000000000081525081526020016040518060400160405280600581526020017f6361724e6f00000000000000000000000000000000000000000000000000000081525081526020016040518060400160405280600781526020017f636172436572740000000000000000000000000000000000000000000000000081525081526020016040518060400160405280600681526020017f647269766572000000000000000000000000000000000000000000000000000081525081526020016040518060400160405280600a81526020017f647269766572436572740000000000000000000000000000000000000000000081525081526020016040518060400160405280600881526020017f696e576569676874000000000000000000000000000000000000000000000000815250815250905060008090505b6006811015610c9357600060608060606000809054906101000a900473ffffffffffffffffffffffffffffffffffffffff1673ffffffffffffffffffffffffffffffffffffffff166381ba85f98c888860068110610bcb57fe5b60200201516040518363ffffffff1660e01b8152600401610bed92919061264f565b60006040518083038186803b158015610c0557600080fd5b505afa158015610c19573d6000803e3d6000fd5b505050506040513d6000823e3d601f19601f82011682018060405250610c429190810190612074565b8094508195508296508397505050505081888681518110610c5f57fe5b602002602001018190525080878681518110610c7757fe5b6020026020010181905250505050508080600101915050610b71565b50828294509450505050915091565b60608060606010604051908082528060200260200182016040528015610cdc57816020015b6060815260200190600190039081610cc75790505b50905060606010604051908082528060200260200182016040528015610d1657816020015b6060815260200190600190039081610d015790505b509050610d21611f51565b6040518061020001604052806040518060400160405280600d81526020017f696e466163746f727954696d650000000000000000000000000000000000000081525081526020016040518060400160405280600581526020017f6361724e6f00000000000000000000000000000000000000000000000000000081525081526020016040518060400160405280600781526020017f636172436572740000000000000000000000000000000000000000000000000081525081526020016040518060400160405280600681526020017f647269766572000000000000000000000000000000000000000000000000000081525081526020016040518060400160405280600a81526020017f647269766572436572740000000000000000000000000000000000000000000081525081526020016040518060400160405280600881526020017f696e57656967687400000000000000000000000000000000000000000000000081525081526020016040518060400160405280600981526020017f696e50696348617368000000000000000000000000000000000000000000000081525081526020016040518060400160405280600781526020017f71634c6576656c0000000000000000000000000000000000000000000000000081525081526020016040518060400160405280600881526020017f7163506572736f6e00000000000000000000000000000000000000000000000081525081526020016040518060400160405280600e81526020017f6f7574466163746f727954696d6500000000000000000000000000000000000081525081526020016040518060400160405280600a81526020017f6f7574506963486173680000000000000000000000000000000000000000000081525081526020016040518060400160405280600981526020017f6f7574576569676874000000000000000000000000000000000000000000000081525081526020016040518060400160405280600b81526020017f66756e645069634861736800000000000000000000000000000000000000000081525081526020016040518060400160405280600681526020017f66756e644964000000000000000000000000000000000000000000000000000081525081526020016040518060400160405280600981526020017f66756e6456616c7565000000000000000000000000000000000000000000000081525081526020016040518060400160405280600c81526020017f636f6e7472616374486173680000000000000000000000000000000000000000815250815250905060008090505b601081101561120557600060608060606000809054906101000a900473ffffffffffffffffffffffffffffffffffffffff1673ffffffffffffffffffffffffffffffffffffffff166381ba85f98c88886010811061113d57fe5b60200201516040518363ffffffff1660e01b815260040161115f92919061264f565b60006040518083038186803b15801561117757600080fd5b505afa15801561118b573d6000803e3d6000fd5b505050506040513d6000823e3d601f19601f820116820180604052506111b49190810190612074565b80945081955082965083975050505050818886815181106111d157fe5b6020026020010181905250808786815181106111e957fe5b60200260200101819052505050505080806001019150506110e3565b50828294509450505050915091565b806000806101000a81548173ffffffffffffffffffffffffffffffffffffffff021916908373ffffffffffffffffffffffffffffffffffffffff16021790555050565b6000809054906101000a900473ffffffffffffffffffffffffffffffffffffffff1673ffffffffffffffffffffffffffffffffffffffff1663aad22a70836007846040518463ffffffff1660e01b81526004016112b6939291906126bd565b600060405180830381600087803b1580156112d057600080fd5b505af11580156112e4573d6000803e3d6000fd5b505050505050565b6000809054906101000a900473ffffffffffffffffffffffffffffffffffffffff1673ffffffffffffffffffffffffffffffffffffffff1663aad22a70846008856040518463ffffffff1660e01b815260040161134b939291906126bd565b600060405180830381600087803b15801561136557600080fd5b505af1158015611379573d6000803e3d6000fd5b505050506000809054906101000a900473ffffffffffffffffffffffffffffffffffffffff1673ffffffffffffffffffffffffffffffffffffffff1663aad22a70846009846040518463ffffffff1660e01b81526004016113dc939291906126bd565b600060405180830381600087803b1580156113f657600080fd5b505af115801561140a573d6000803e3d6000fd5b50505050505050565b6000809054906101000a900473ffffffffffffffffffffffffffffffffffffffff1673ffffffffffffffffffffffffffffffffffffffff1663aad22a7085600d866040518463ffffffff1660e01b8152600401611472939291906126bd565b600060405180830381600087803b15801561148c57600080fd5b505af11580156114a0573d6000803e3d6000fd5b505050506000809054906101000a900473ffffffffffffffffffffffffffffffffffffffff1673ffffffffffffffffffffffffffffffffffffffff1663aad22a7085600e856040518463ffffffff1660e01b8152600401611503939291906126bd565b600060405180830381600087803b15801561151d57600080fd5b505af1158015611531573d6000803e3d6000fd5b505050506000809054906101000a900473ffffffffffffffffffffffffffffffffffffffff1673ffffffffffffffffffffffffffffffffffffffff1663aad22a7085600f846040518463ffffffff1660e01b8152600401611594939291906126bd565b600060405180830381600087803b1580156115ae57600080fd5b505af11580156115c2573d6000803e3d6000fd5b5050505050505050565b6000809054906101000a900473ffffffffffffffffffffffffffffffffffffffff1673ffffffffffffffffffffffffffffffffffffffff1663aad22a7084600a856040518463ffffffff1660e01b815260040161162b939291906126bd565b600060405180830381600087803b15801561164557600080fd5b505af1158015611659573d6000803e3d6000fd5b505050506000809054906101000a900473ffffffffffffffffffffffffffffffffffffffff1673ffffffffffffffffffffffffffffffffffffffff1663aad22a7084600c846040518463ffffffff1660e01b81526004016116bc939291906126bd565b600060405180830381600087803b1580156116d657600080fd5b505af11580156116ea573d6000803e3d6000fd5b50505050505050565b6060600060608060606000809054906101000a900473ffffffffffffffffffffffffffffffffffffffff1673ffffffffffffffffffffffffffffffffffffffff166381ba85f98760106040518363ffffffff1660e01b8152600401611759929190612686565b60006040518083038186803b15801561177157600080fd5b505afa158015611785573d6000803e3d6000fd5b505050506040513d6000823e3d601f19601f820116820180604052506117ae9190810190612074565b8094508195508296508397505050505080945050505050919050565b6060600060608060606000809054906101000a900473ffffffffffffffffffffffffffffffffffffffff1673ffffffffffffffffffffffffffffffffffffffff166381ba85f98760076040518363ffffffff1660e01b8152600401611830929190612686565b60006040518083038186803b15801561184857600080fd5b505afa15801561185c573d6000803e3d6000fd5b505050506040513d6000823e3d601f19601f820116820180604052506118859190810190612074565b8094508195508296508397505050505080945050505050919050565b6000809054906101000a900473ffffffffffffffffffffffffffffffffffffffff1673ffffffffffffffffffffffffffffffffffffffff1663aad22a70836010846040518463ffffffff1660e01b8152600401611900939291906126bd565b600060405180830381600087803b15801561191a57600080fd5b505af115801561192e573d6000803e3d6000fd5b505050505050565b6060806060600260405190808252806020026020018201604052801561197057816020015b606081526020019060019003908161195b5790505b509050606060026040519080825280602002602001820160405280156119aa57816020015b60608152602001906001900390816119955790505b5090506119b5611f03565b60405180604001604052806040518060400160405280600e81526020017f6f7574466163746f727954696d6500000000000000000000000000000000000081525081526020016040518060400160405280600981526020017f6f75745765696768740000000000000000000000000000000000000000000000815250815250905060008090505b6002811015611b5e57600060608060606000809054906101000a900473ffffffffffffffffffffffffffffffffffffffff1673ffffffffffffffffffffffffffffffffffffffff166381ba85f98c888860028110611a9657fe5b60200201516040518363ffffffff1660e01b8152600401611ab892919061264f565b60006040518083038186803b158015611ad057600080fd5b505afa158015611ae4573d6000803e3d6000fd5b505050506040513d6000823e3d601f19601f82011682018060405250611b0d9190810190612074565b8094508195508296508397505050505081888681518110611b2a57fe5b602002602001018190525080878681518110611b4257fe5b6020026020010181905250505050508080600101915050611a3c565b50828294509450505050915091565b6000809054906101000a900473ffffffffffffffffffffffffffffffffffffffff1673ffffffffffffffffffffffffffffffffffffffff1663aad22a70886001896040518463ffffffff1660e01b8152600401611bcc939291906126bd565b600060405180830381600087803b158015611be657600080fd5b505af1158015611bfa573d6000803e3d6000fd5b505050506000809054906101000a900473ffffffffffffffffffffffffffffffffffffffff1673ffffffffffffffffffffffffffffffffffffffff1663aad22a70886002886040518463ffffffff1660e01b8152600401611c5d939291906126bd565b600060405180830381600087803b158015611c7757600080fd5b505af1158015611c8b573d6000803e3d6000fd5b505050506000809054906101000a900473ffffffffffffffffffffffffffffffffffffffff1673ffffffffffffffffffffffffffffffffffffffff1663aad22a70886003876040518463ffffffff1660e01b8152600401611cee939291906126bd565b600060405180830381600087803b158015611d0857600080fd5b505af1158015611d1c573d6000803e3d6000fd5b505050506000809054906101000a900473ffffffffffffffffffffffffffffffffffffffff1673ffffffffffffffffffffffffffffffffffffffff1663aad22a70886004866040518463ffffffff1660e01b8152600401611d7f939291906126bd565b600060405180830381600087803b158015611d9957600080fd5b505af1158015611dad573d6000803e3d6000fd5b505050506000809054906101000a900473ffffffffffffffffffffffffffffffffffffffff1673ffffffffffffffffffffffffffffffffffffffff1663aad22a70886005856040518463ffffffff1660e01b8152600401611e10939291906126bd565b600060405180830381600087803b158015611e2a57600080fd5b505af1158015611e3e573d6000803e3d6000fd5b505050506000809054906101000a900473ffffffffffffffffffffffffffffffffffffffff1673ffffffffffffffffffffffffffffffffffffffff1663aad22a70886006846040518463ffffffff1660e01b8152600401611ea1939291906126bd565b600060405180830381600087803b158015611ebb57600080fd5b505af1158015611ecf573d6000803e3d6000fd5b5050505050505050505050565b60405180606001604052806003905b6060815260200190600190039081611eeb5790505090565b60405180604001604052806002905b6060815260200190600190039081611f125790505090565b6040518060c001604052806006905b6060815260200190600190039081611f395790505090565b6040518061020001604052806010905b6060815260200190600190039081611f615790505090565b600081359050611f888161286d565b92915050565b600081519050611f9d8161286d565b92915050565b600082601f830112611fb457600080fd5b8135611fc7611fc282612736565b612709565b91508082526020830160208301858383011115611fe357600080fd5b611fee83828461281a565b50505092915050565b600082601f83011261200857600080fd5b815161201b61201682612736565b612709565b9150808252602083016020830185838301111561203757600080fd5b612042838284612829565b50505092915050565b60006020828403121561205d57600080fd5b600061206b84828501611f79565b91505092915050565b6000806000806080858703121561208a57600080fd5b600061209887828801611f8e565b945050602085015167ffffffffffffffff8111156120b557600080fd5b6120c187828801611ff7565b935050604085015167ffffffffffffffff8111156120de57600080fd5b6120ea87828801611ff7565b925050606085015167ffffffffffffffff81111561210757600080fd5b61211387828801611ff7565b91505092959194509250565b60006020828403121561213157600080fd5b600082013567ffffffffffffffff81111561214b57600080fd5b61215784828501611fa3565b91505092915050565b6000806040838503121561217357600080fd5b600083013567ffffffffffffffff81111561218d57600080fd5b61219985828601611fa3565b925050602083013567ffffffffffffffff8111156121b657600080fd5b6121c285828601611fa3565b9150509250929050565b6000806000606084860312156121e157600080fd5b600084013567ffffffffffffffff8111156121fb57600080fd5b61220786828701611fa3565b935050602084013567ffffffffffffffff81111561222457600080fd5b61223086828701611fa3565b925050604084013567ffffffffffffffff81111561224d57600080fd5b61225986828701611fa3565b9150509250925092565b6000806000806080858703121561227957600080fd5b600085013567ffffffffffffffff81111561229357600080fd5b61229f87828801611fa3565b945050602085013567ffffffffffffffff8111156122bc57600080fd5b6122c887828801611fa3565b935050604085013567ffffffffffffffff8111156122e557600080fd5b6122f187828801611fa3565b925050606085013567ffffffffffffffff81111561230e57600080fd5b61231a87828801611fa3565b91505092959194509250565b600080600080600080600060e0888a03121561234157600080fd5b600088013567ffffffffffffffff81111561235b57600080fd5b6123678a828b01611fa3565b975050602088013567ffffffffffffffff81111561238457600080fd5b6123908a828b01611fa3565b965050604088013567ffffffffffffffff8111156123ad57600080fd5b6123b98a828b01611fa3565b955050606088013567ffffffffffffffff8111156123d657600080fd5b6123e28a828b01611fa3565b945050608088013567ffffffffffffffff8111156123ff57600080fd5b61240b8a828b01611fa3565b93505060a088013567ffffffffffffffff81111561242857600080fd5b6124348a828b01611fa3565b92505060c088013567ffffffffffffffff81111561245157600080fd5b61245d8a828b01611fa3565b91505092959891949750929550565b6000612478838361252e565b905092915050565b600061248b82612787565b61249581856127b5565b9350836020820285016124a785612762565b8060005b858110156124e357848403895281516124c4858261246c565b94506124cf836127a8565b925060208a019950506001810190506124ab565b50829750879550505050505092915050565b60006125008261279d565b61250a81856127d7565b935061251a818560208601612829565b6125238161285c565b840191505092915050565b600061253982612792565b61254381856127c6565b9350612553818560208601612829565b61255c8161285c565b840191505092915050565b60008154600181166000811461258457600181146125aa576125ee565b607f600283041661259581876127d7565b955060ff1983168652602086019350506125ee565b600282046125b881876127d7565b95506125c385612772565b60005b828110156125e5578154818901526001820191506020810190506125c6565b80880195505050505b505092915050565b600060408201905081810360008301526126108185612480565b905081810360208301526126248184612480565b90509392505050565b6000602082019050818103600083015261264781846124f5565b905092915050565b6000604082019050818103600083015261266981856124f5565b9050818103602083015261267d81846124f5565b90509392505050565b600060408201905081810360008301526126a081856124f5565b905081810360208301526126b48184612567565b90509392505050565b600060608201905081810360008301526126d781866124f5565b905081810360208301526126eb8185612567565b905081810360408301526126ff81846124f5565b9050949350505050565b6000604051905081810181811067ffffffffffffffff8211171561272c57600080fd5b8060405250919050565b600067ffffffffffffffff82111561274d57600080fd5b601f19601f8301169050602081019050919050565b6000819050602082019050919050565b60008190508160005260206000209050919050565b600081519050919050565b600081519050919050565b600081519050919050565b6000602082019050919050565b600082825260208201905092915050565b600082825260208201905092915050565b600082825260208201905092915050565b60006127f3826127fa565b9050919050565b600073ffffffffffffffffffffffffffffffffffffffff82169050919050565b82818337600083830152505050565b60005b8381101561284757808201518184015260208101905061282c565b83811115612856576000848401525b50505050565b6000601f19601f8301169050919050565b612876816127e8565b811461288157600080fd5b5056fea365627a7a72315820b206fe585c05d3f963341831229be4e01f0fd27693ab4f1cd31d5e6e88f19b416c6578706572696d656e74616cf564736f6c63430005100040",
  "source": "pragma solidity ^0.5.16;\npragma experimental ABIEncoderV2;\n\nimport \"./GeneralStorage.sol\";\n\ncontract FactoryInfo  {\n    GeneralStorage generalStorage;\n\n    string  inFactoryTime = \"inFactoryTime\";\n    string  carNo = \"carNo\";\n    string  carCert = \"carCert\";\n    string  driver = \"driver\";\n    string  driverCert = \"driverCert\";\n    string  inWeight = \"inWeight\";\n\n    string  inPicHash = \"inPicHash\";\n\n    string  qcLevel = \"qcLevel\";\n    string  qcPerson = \"qcPerson\";\n\n    string  outFactoryTime = \"outFactoryTime\";\n    string  outPicHash = \"outPicHash\";\n    string  outWeight = \"outWeight\";\n\n\n    string  fundPicHash = \"fundPicHash\";\n    string  fundId = \"fundId\";\n    string  fundValue = \"fundValue\";\n\n    string  contractHash = \"contractHash\";\n\n    function setStorageAddress(address _addr) public{\n        generalStorage = GeneralStorage(_addr);\n    }\n\n    function setInFactory(bytes memory _id,bytes memory _date,bytes memory _cano,\n                            bytes memory _cacert,bytes memory _driver,\n                            bytes memory _drivercert,\n                            bytes memory _weight) public{\n        generalStorage.setStorage(_id,bytes(inFactoryTime),_date);\n        generalStorage.setStorage(_id,bytes(carNo),_cano);\n        generalStorage.setStorage(_id,bytes(carCert),_cacert);\n        generalStorage.setStorage(_id,bytes(driver),_driver);\n        generalStorage.setStorage(_id,bytes(driverCert),_drivercert);\n        generalStorage.setStorage(_id,bytes(inWeight),_weight);\n    }\n\n    function getInFactoryInfo(bytes memory _id) public view returns(bytes[] memory,bytes[] memory){\n        bytes[] memory stages = new bytes[](6);\n        bytes[] memory values = new bytes[](6);\n        string[6] memory list = [\"inFactoryTime\",\"carNo\",\"carCert\",\"driver\",\"driverCert\",\"inWeight\"];\n        for (uint i = 0; i < 6; i++) {\n            address from;\n            bytes memory idinfo;\n            bytes memory stage;\n            bytes memory value;\n            (from,idinfo,stage,value) = generalStorage.getStorage(_id,bytes(list[i]));\n            stages[i] = stage;\n            values[i] = value;\n        }\n        return (stages,values);\n    }\n\n    function setInPic(bytes memory _id,bytes memory _pic) public{\n        generalStorage.setStorage(_id,bytes(inPicHash),_pic);\n    }\n\n    function getInPic(bytes memory _id) public view returns(bytes memory){\n        address from;\n        bytes memory idinfo;\n        bytes memory stage;\n        bytes memory value;\n        (from,idinfo,stage,value) = generalStorage.getStorage(_id,bytes(inPicHash));\n        return value;\n    }\n\n    function setContractHash(bytes memory _id,bytes memory _contracthash) public{\n        generalStorage.setStorage(_id,bytes(contractHash),_contracthash);\n    }\n\n    function getContractHash(bytes memory _id) public view returns(bytes memory){\n        address from;\n        bytes memory idinfo;\n        bytes memory stage;\n        bytes memory value;\n        (from,idinfo,stage,value) = generalStorage.getStorage(_id,bytes(contractHash));\n        return value;\n    }\n\n    function setQc(bytes memory _id,bytes memory _qclevel,bytes memory _qcperson) public{\n        generalStorage.setStorage(_id,bytes(qcLevel),_qclevel);\n        generalStorage.setStorage(_id,bytes(qcPerson),_qcperson);\n    }\n\n    function getQc(bytes memory _id) public view returns(bytes[] memory,bytes[] memory){\n        bytes[] memory stages = new bytes[](2);\n        bytes[] memory values = new bytes[](2);\n        string[2] memory list = [\"qcLevel\",\"qcPerson\"];\n        for (uint i = 0; i < 2; i++) {\n            address from;\n            bytes memory idinfo;\n            bytes memory stage;\n            bytes memory value;\n            (from,idinfo,stage,value) = generalStorage.getStorage(_id,bytes(list[i]));\n            stages[i] = stage;\n            values[i] = value;\n        }\n        return (stages,values);\n    }\n\n    function setOutFactory(bytes memory _id,bytes memory _date,bytes memory _weight) public{\n        generalStorage.setStorage(_id,bytes(outFactoryTime),_date);\n        generalStorage.setStorage(_id,bytes(outWeight),_weight);\n    }\n\n    function getOutFactoryInfo(bytes memory _id) public view returns(bytes[] memory,bytes[] memory){\n        bytes[] memory stages = new bytes[](2);\n        bytes[] memory values = new bytes[](2);\n        string[2] memory list = [\"outFactoryTime\",\"outWeight\"];\n        for (uint i = 0; i < 2; i++) {\n            address from;\n            bytes memory idinfo;\n            bytes memory stage;\n            bytes memory value;\n            (from,idinfo,stage,value) = generalStorage.getStorage(_id,bytes(list[i]));\n            stages[i] = stage;\n            values[i] = value;\n        }\n        return (stages,values);\n    }\n\n    function setOutPic(bytes memory _id,bytes memory _pic) public{\n        generalStorage.setStorage(_id,bytes(outPicHash),_pic);\n    }\n\n    function getOutPic(bytes memory _id) public view returns(bytes memory){\n        address from;\n        bytes memory idinfo;\n        bytes memory stage;\n        bytes memory value;\n        (from,idinfo,stage,value) = generalStorage.getStorage(_id,bytes(outPicHash));\n        return value;\n    }\n\n     function setFund(bytes memory _id,bytes memory _pichash,bytes memory _fundid,bytes memory _fundvalue) public{\n        generalStorage.setStorage(_id,bytes(fundPicHash),_pichash);\n        generalStorage.setStorage(_id,bytes(fundId),_fundid);\n        generalStorage.setStorage(_id,bytes(fundValue),_fundvalue);\n    }\n\n    function getFund(bytes memory _id) public view returns(bytes[] memory,bytes[] memory){\n        bytes[] memory stages = new bytes[](3);\n        bytes[] memory values = new bytes[](3);\n        string[3] memory list = [\"fundPicHash\",\"fundId\",\"fundValue\"];\n        for (uint i = 0; i < 3; i++) {\n            address from;\n            bytes memory idinfo;\n            bytes memory stage;\n            bytes memory value;\n            (from,idinfo,stage,value) = generalStorage.getStorage(_id,bytes(list[i]));\n            stages[i] = stage;\n            values[i] = value;\n        }\n        return (stages,values);\n    }\n\n    function getInfo(bytes memory _id) public view returns(bytes[] memory,bytes[] memory){\n\n        bytes[] memory stages = new bytes[](16);\n        bytes[] memory values = new bytes[](16);\n\n        string[16] memory list = [\"inFactoryTime\",\"carNo\",\"carCert\",\"driver\",\"driverCert\",\n        \"inWeight\",\"inPicHash\",\"qcLevel\",\"qcPerson\",\"outFactoryTime\",\"outPicHash\",\"outWeight\",\n        \"fundPicHash\",\"fundId\",\"fundValue\",\"contractHash\"];\n\n        for (uint i = 0; i < 16; i++) {\n            address from;\n            bytes memory idinfo;\n            bytes memory stage;\n            bytes memory value;\n            (from,idinfo,stage,value) = generalStorage.getStorage(_id,bytes(list[i]));\n            stages[i] = stage;\n            values[i] = value;\n        }\n        return (stages,values);\n    }\n}",
  "sourcePath": "/Users/fieldlee/Downloads/Cita/SolidtyToJson/contracts/FactoryInfo.sol",
  "compiler": {
    "name": "solc",
    "version": "0.5.16+commit.9c3226ce.Emscripten.clang"
  },
  "schemaVersion": "3.2.0",
  "updatedAt": "2020-06-16T01:43:48.018Z",
  "devdoc": {
    "methods": {}
  },
  "userdoc": {
    "methods": {}
  }
}