{
  "contractName": "FactoryInfo",
  "abi": [
    {
      "constant": false,
      "inputs": [
        {
          "internalType": "address",
          "name": "_addr",
          "type": "address"
        }
      ],
      "name": "setStorageAddress",
      "outputs": [],
      "payable": false,
      "stateMutability": "nonpayable",
      "type": "function"
    },
    {
      "constant": false,
      "inputs": [
        {
          "internalType": "bytes",
          "name": "_id",
          "type": "bytes"
        },
        {
          "internalType": "bytes",
          "name": "_date",
          "type": "bytes"
        },
        {
          "internalType": "bytes",
          "name": "_cert",
          "type": "bytes"
        },
        {
          "internalType": "bytes",
          "name": "_driver",
          "type": "bytes"
        },
        {
          "internalType": "bytes",
          "name": "_lvl",
          "type": "bytes"
        },
        {
          "internalType": "bytes",
          "name": "_weight",
          "type": "bytes"
        }
      ],
      "name": "setInFactory",
      "outputs": [],
      "payable": false,
      "stateMutability": "nonpayable",
      "type": "function"
    },
    {
      "constant": false,
      "inputs": [
        {
          "internalType": "bytes",
          "name": "_id",
          "type": "bytes"
        },
        {
          "internalType": "bytes",
          "name": "_pic",
          "type": "bytes"
        },
        {
          "internalType": "bytes",
          "name": "_video",
          "type": "bytes"
        }
      ],
      "name": "setInPic",
      "outputs": [],
      "payable": false,
      "stateMutability": "nonpayable",
      "type": "function"
    },
    {
      "constant": true,
      "inputs": [
        {
          "internalType": "bytes",
          "name": "_id",
          "type": "bytes"
        }
      ],
      "name": "getInFactoryInfo",
      "outputs": [
        {
          "internalType": "bytes[]",
          "name": "",
          "type": "bytes[]"
        },
        {
          "internalType": "bytes[]",
          "name": "",
          "type": "bytes[]"
        }
      ],
      "payable": false,
      "stateMutability": "view",
      "type": "function"
    },
    {
      "constant": false,
      "inputs": [
        {
          "internalType": "bytes",
          "name": "_id",
          "type": "bytes"
        },
        {
          "internalType": "bytes",
          "name": "_date",
          "type": "bytes"
        },
        {
          "internalType": "bytes",
          "name": "_hash",
          "type": "bytes"
        },
        {
          "internalType": "bytes",
          "name": "_weight",
          "type": "bytes"
        }
      ],
      "name": "setOutFactory",
      "outputs": [],
      "payable": false,
      "stateMutability": "nonpayable",
      "type": "function"
    },
    {
      "constant": false,
      "inputs": [
        {
          "internalType": "bytes",
          "name": "_id",
          "type": "bytes"
        },
        {
          "internalType": "bytes",
          "name": "_pic",
          "type": "bytes"
        }
      ],
      "name": "setOutPic",
      "outputs": [],
      "payable": false,
      "stateMutability": "nonpayable",
      "type": "function"
    },
    {
      "constant": true,
      "inputs": [
        {
          "internalType": "bytes",
          "name": "_id",
          "type": "bytes"
        }
      ],
      "name": "getOutFactoryInfo",
      "outputs": [
        {
          "internalType": "bytes[]",
          "name": "",
          "type": "bytes[]"
        },
        {
          "internalType": "bytes[]",
          "name": "",
          "type": "bytes[]"
        }
      ],
      "payable": false,
      "stateMutability": "view",
      "type": "function"
    },
    {
      "constant": false,
      "inputs": [
        {
          "internalType": "bytes",
          "name": "_id",
          "type": "bytes"
        },
        {
          "internalType": "bytes",
          "name": "_pic",
          "type": "bytes"
        },
        {
          "internalType": "bytes",
          "name": "_fundid",
          "type": "bytes"
        },
        {
          "internalType": "bytes",
          "name": "_fundValue",
          "type": "bytes"
        }
      ],
      "name": "setFund",
      "outputs": [],
      "payable": false,
      "stateMutability": "nonpayable",
      "type": "function"
    },
    {
      "constant": true,
      "inputs": [
        {
          "internalType": "bytes",
          "name": "_id",
          "type": "bytes"
        }
      ],
      "name": "getFund",
      "outputs": [
        {
          "internalType": "bytes[]",
          "name": "",
          "type": "bytes[]"
        },
        {
          "internalType": "bytes[]",
          "name": "",
          "type": "bytes[]"
        }
      ],
      "payable": false,
      "stateMutability": "view",
      "type": "function"
    },
    {
      "constant": true,
      "inputs": [
        {
          "internalType": "bytes",
          "name": "_id",
          "type": "bytes"
        }
      ],
      "name": "getInfo",
      "outputs": [
        {
          "internalType": "bytes[]",
          "name": "",
          "type": "bytes[]"
        },
        {
          "internalType": "bytes[]",
          "name": "",
          "type": "bytes[]"
        }
      ],
      "payable": false,
      "stateMutability": "view",
      "type": "function"
    }
  ],
  "bytecode": "0x60806040526040518060400160405280600d81526020017f696e466163746f727954696d650000000000000000000000000000000000000081525060019080519060200190620000519291906200045c565b506040518060400160405280600781526020017f6361724365727400000000000000000000000000000000000000000000000000815250600290805190602001906200009f9291906200045c565b506040518060400160405280600681526020017f647269766572000000000000000000000000000000000000000000000000000081525060039080519060200190620000ed9291906200045c565b506040518060400160405280600581526020017f6c6576656c000000000000000000000000000000000000000000000000000000815250600490805190602001906200013b9291906200045c565b506040518060400160405280600881526020017f696e57656967687400000000000000000000000000000000000000000000000081525060059080519060200190620001899291906200045c565b506040518060400160405280600981526020017f696e50696348617368000000000000000000000000000000000000000000000081525060069080519060200190620001d79291906200045c565b506040518060400160405280600b81526020017f696e566964656f4861736800000000000000000000000000000000000000000081525060079080519060200190620002259291906200045c565b506040518060400160405280600e81526020017f6f7574466163746f727954696d6500000000000000000000000000000000000081525060089080519060200190620002739291906200045c565b506040518060400160405280600a81526020017f6f7574506963486173680000000000000000000000000000000000000000000081525060099080519060200190620002c19291906200045c565b506040518060400160405280600981526020017f6f75745765696768740000000000000000000000000000000000000000000000815250600a90805190602001906200030f9291906200045c565b506040518060400160405280600881526020017f66756e64496e666f000000000000000000000000000000000000000000000000815250600b90805190602001906200035d9291906200045c565b506040518060400160405280600b81526020017f66756e6450696348617368000000000000000000000000000000000000000000815250600c9080519060200190620003ab9291906200045c565b506040518060400160405280600681526020017f66756e6449640000000000000000000000000000000000000000000000000000815250600d9080519060200190620003f99291906200045c565b506040518060400160405280600981526020017f66756e6456616c75650000000000000000000000000000000000000000000000815250600e9080519060200190620004479291906200045c565b503480156200045557600080fd5b506200050b565b828054600181600116156101000203166002900490600052602060002090601f016020900481019282601f106200049f57805160ff1916838001178555620004d0565b82800160010185558215620004d0579182015b82811115620004cf578251825591602001919060010190620004b2565b5b509050620004df9190620004e3565b5090565b6200050891905b8082111562000504576000816000905550600101620004ea565b5090565b90565b6122dc806200051b6000396000f3fe608060405234801561001057600080fd5b506004361061009e5760003560e01c806385cf07a91161006657806385cf07a91461016e578063a83a36f31461018a578063bca8db91146101a6578063cb70a3ad146101c2578063dc1722ad146101de5761009e565b80632c4a10c9146100a35780633b61a08e146100d457806352a17003146100f057806352ef4b141461012157806359b910d614610152575b600080fd5b6100bd60048036036100b89190810190611ace565b61020f565b6040516100cb929190611f78565b60405180910390f35b6100ee60048036036100e99190810190611b0f565b6102f0565b005b61010a60048036036101059190810190611ace565b610385565b604051610118929190611f78565b60405180910390f35b61013b60048036036101369190810190611ace565b6106e3565b604051610149929190611f78565b60405180910390f35b61016c60048036036101679190810190611923565b610af3565b005b61018860048036036101839190810190611c12565b610b36565b005b6101a4600480360361019f9190810190611c12565b610cef565b005b6101c060048036036101bb9190810190611cd5565b611062565b005b6101dc60048036036101d79190810190611b7b565b61133f565b005b6101f860048036036101f39190810190611ace565b611466565b604051610206929190611f78565b60405180910390f35b60608060006060806060806000809054906101000a900473ffffffffffffffffffffffffffffffffffffffff1673ffffffffffffffffffffffffffffffffffffffff16636afee49289600b6040518363ffffffff1660e01b8152600401610277929190611fe6565b60006040518083038186803b15801561028f57600080fd5b505afa1580156102a3573d6000803e3d6000fd5b505050506040513d6000823e3d601f19601f820116820180604052506102cc919081019061194c565b80955081965082975083985084995050505050508181965096505050505050915091565b6000809054906101000a900473ffffffffffffffffffffffffffffffffffffffff1673ffffffffffffffffffffffffffffffffffffffff1663aad22a70836009846040518463ffffffff1660e01b815260040161034f9392919061207e565b600060405180830381600087803b15801561036957600080fd5b505af115801561037d573d6000803e3d6000fd5b505050505050565b606080606060076040519080825280602002602001820160405280156103bf57816020015b60608152602001906001900390816103aa5790505b509050606060076040519080825280602002602001820160405280156103f957816020015b60608152602001906001900390816103e45790505b509050610404611713565b6040518060e001604052806040518060400160405280600d81526020017f696e466163746f727954696d650000000000000000000000000000000000000081525081526020016040518060400160405280600681526020017f647269766572000000000000000000000000000000000000000000000000000081525081526020016040518060400160405280600781526020017f636172436572740000000000000000000000000000000000000000000000000081525081526020016040518060400160405280600581526020017f6c6576656c00000000000000000000000000000000000000000000000000000081525081526020016040518060400160405280600881526020017f696e57656967687400000000000000000000000000000000000000000000000081525081526020016040518060400160405280600981526020017f696e50696348617368000000000000000000000000000000000000000000000081525081526020016040518060400160405280600b81526020017f696e566964656f48617368000000000000000000000000000000000000000000815250815250905060008090505b60078110156106d457600060608060606000809054906101000a900473ffffffffffffffffffffffffffffffffffffffff1673ffffffffffffffffffffffffffffffffffffffff166381ba85f98c88886007811061060c57fe5b60200201516040518363ffffffff1660e01b815260040161062e929190611faf565b60006040518083038186803b15801561064657600080fd5b505afa15801561065a573d6000803e3d6000fd5b505050506040513d6000823e3d601f19601f820116820180604052506106839190810190611a23565b80945081955082965083975050505050818886815181106106a057fe5b6020026020010181905250808786815181106106b857fe5b60200260200101819052505050505080806001019150506105b2565b50828294509450505050915091565b6060806060600a60405190808252806020026020018201604052801561071d57816020015b60608152602001906001900390816107085790505b5090506060600a60405190808252806020026020018201604052801561075757816020015b60608152602001906001900390816107425790505b50905061076261173a565b6040518061014001604052806040518060400160405280600d81526020017f696e466163746f727954696d650000000000000000000000000000000000000081525081526020016040518060400160405280600781526020017f636172436572740000000000000000000000000000000000000000000000000081525081526020016040518060400160405280600681526020017f647269766572000000000000000000000000000000000000000000000000000081525081526020016040518060400160405280600581526020017f6c6576656c00000000000000000000000000000000000000000000000000000081525081526020016040518060400160405280600981526020017f696e50696348617368000000000000000000000000000000000000000000000081525081526020016040518060400160405280600b81526020017f696e566964656f4861736800000000000000000000000000000000000000000081525081526020016040518060400160405280600881526020017f696e57656967687400000000000000000000000000000000000000000000000081525081526020016040518060400160405280600e81526020017f6f7574466163746f727954696d6500000000000000000000000000000000000081525081526020016040518060400160405280600a81526020017f6f7574506963486173680000000000000000000000000000000000000000000081525081526020016040518060400160405280600981526020017f6f75745765696768740000000000000000000000000000000000000000000000815250815250905060008090505b600a811015610ae457600060608060606000809054906101000a900473ffffffffffffffffffffffffffffffffffffffff1673ffffffffffffffffffffffffffffffffffffffff166381ba85f98c8888600a8110610a1c57fe5b60200201516040518363ffffffff1660e01b8152600401610a3e929190611faf565b60006040518083038186803b158015610a5657600080fd5b505afa158015610a6a573d6000803e3d6000fd5b505050506040513d6000823e3d601f19601f82011682018060405250610a939190810190611a23565b8094508195508296508397505050505081888681518110610ab057fe5b602002602001018190525080878681518110610ac857fe5b60200260200101819052505050505080806001019150506109c2565b50828294509450505050915091565b806000806101000a81548173ffffffffffffffffffffffffffffffffffffffff021916908373ffffffffffffffffffffffffffffffffffffffff16021790555050565b6000809054906101000a900473ffffffffffffffffffffffffffffffffffffffff1673ffffffffffffffffffffffffffffffffffffffff1663aad22a70856008866040518463ffffffff1660e01b8152600401610b959392919061207e565b600060405180830381600087803b158015610baf57600080fd5b505af1158015610bc3573d6000803e3d6000fd5b505050506000809054906101000a900473ffffffffffffffffffffffffffffffffffffffff1673ffffffffffffffffffffffffffffffffffffffff1663aad22a70856009856040518463ffffffff1660e01b8152600401610c269392919061207e565b600060405180830381600087803b158015610c4057600080fd5b505af1158015610c54573d6000803e3d6000fd5b505050506000809054906101000a900473ffffffffffffffffffffffffffffffffffffffff1673ffffffffffffffffffffffffffffffffffffffff1663aad22a7085600a846040518463ffffffff1660e01b8152600401610cb79392919061207e565b600060405180830381600087803b158015610cd157600080fd5b505af1158015610ce5573d6000803e3d6000fd5b5050505050505050565b60606003604051908082528060200260200182016040528015610d2657816020015b6060815260200190600190039081610d115790505b50905060606003604051908082528060200260200182016040528015610d6057816020015b6060815260200190600190039081610d4b5790505b509050600c8054600181600116156101000203166002900480601f016020809104026020016040519081016040528092919081815260200182805460018160011615610100020316600290048015610df95780601f10610dce57610100808354040283529160200191610df9565b820191906000526020600020905b815481529060010190602001808311610ddc57829003601f168201915b505050505082600081518110610e0b57fe5b6020026020010181905250600d8054600181600116156101000203166002900480601f016020809104026020016040519081016040528092919081815260200182805460018160011615610100020316600290048015610eac5780601f10610e8157610100808354040283529160200191610eac565b820191906000526020600020905b815481529060010190602001808311610e8f57829003601f168201915b505050505082600181518110610ebe57fe5b6020026020010181905250600e8054600181600116156101000203166002900480601f016020809104026020016040519081016040528092919081815260200182805460018160011615610100020316600290048015610f5f5780601f10610f3457610100808354040283529160200191610f5f565b820191906000526020600020905b815481529060010190602001808311610f4257829003601f168201915b505050505082600281518110610f7157fe5b60200260200101819052508481600081518110610f8a57fe5b60200260200101819052508381600181518110610fa357fe5b60200260200101819052508281600281518110610fbc57fe5b60200260200101819052506000809054906101000a900473ffffffffffffffffffffffffffffffffffffffff1673ffffffffffffffffffffffffffffffffffffffff16638416fbe687600b85856040518563ffffffff1660e01b8152600401611028949392919061201d565b600060405180830381600087803b15801561104257600080fd5b505af1158015611056573d6000803e3d6000fd5b50505050505050505050565b6000809054906101000a900473ffffffffffffffffffffffffffffffffffffffff1673ffffffffffffffffffffffffffffffffffffffff1663aad22a70876001886040518463ffffffff1660e01b81526004016110c19392919061207e565b600060405180830381600087803b1580156110db57600080fd5b505af11580156110ef573d6000803e3d6000fd5b505050506000809054906101000a900473ffffffffffffffffffffffffffffffffffffffff1673ffffffffffffffffffffffffffffffffffffffff1663aad22a70876002876040518463ffffffff1660e01b81526004016111529392919061207e565b600060405180830381600087803b15801561116c57600080fd5b505af1158015611180573d6000803e3d6000fd5b505050506000809054906101000a900473ffffffffffffffffffffffffffffffffffffffff1673ffffffffffffffffffffffffffffffffffffffff1663aad22a70876003866040518463ffffffff1660e01b81526004016111e39392919061207e565b600060405180830381600087803b1580156111fd57600080fd5b505af1158015611211573d6000803e3d6000fd5b505050506000809054906101000a900473ffffffffffffffffffffffffffffffffffffffff1673ffffffffffffffffffffffffffffffffffffffff1663aad22a70876004856040518463ffffffff1660e01b81526004016112749392919061207e565b600060405180830381600087803b15801561128e57600080fd5b505af11580156112a2573d6000803e3d6000fd5b505050506000809054906101000a900473ffffffffffffffffffffffffffffffffffffffff1673ffffffffffffffffffffffffffffffffffffffff1663aad22a70876005846040518463ffffffff1660e01b81526004016113059392919061207e565b600060405180830381600087803b15801561131f57600080fd5b505af1158015611333573d6000803e3d6000fd5b50505050505050505050565b6000809054906101000a900473ffffffffffffffffffffffffffffffffffffffff1673ffffffffffffffffffffffffffffffffffffffff1663aad22a70846006856040518463ffffffff1660e01b815260040161139e9392919061207e565b600060405180830381600087803b1580156113b857600080fd5b505af11580156113cc573d6000803e3d6000fd5b505050506000809054906101000a900473ffffffffffffffffffffffffffffffffffffffff1673ffffffffffffffffffffffffffffffffffffffff1663aad22a70846007846040518463ffffffff1660e01b815260040161142f9392919061207e565b600060405180830381600087803b15801561144957600080fd5b505af115801561145d573d6000803e3d6000fd5b50505050505050565b606080606060046040519080825280602002602001820160405280156114a057816020015b606081526020019060019003908161148b5790505b509050606060046040519080825280602002602001820160405280156114da57816020015b60608152602001906001900390816114c55790505b5090506114e5611762565b60405180608001604052806040518060400160405280600e81526020017f6f7574466163746f727954696d6500000000000000000000000000000000000081525081526020016040518060400160405280600a81526020017f6f7574506963486173680000000000000000000000000000000000000000000081525081526020016040518060400160405280600981526020017f6f7574576569676874000000000000000000000000000000000000000000000081525081526020016040518060400160405280600a81526020017f6f75745069634861736800000000000000000000000000000000000000000000815250815250905060008090505b600481101561170457600060608060606000809054906101000a900473ffffffffffffffffffffffffffffffffffffffff1673ffffffffffffffffffffffffffffffffffffffff166381ba85f98c88886004811061163c57fe5b60200201516040518363ffffffff1660e01b815260040161165e929190611faf565b60006040518083038186803b15801561167657600080fd5b505afa15801561168a573d6000803e3d6000fd5b505050506040513d6000823e3d601f19601f820116820180604052506116b39190810190611a23565b80945081955082965083975050505050818886815181106116d057fe5b6020026020010181905250808786815181106116e857fe5b60200260200101819052505050505080806001019150506115e2565b50828294509450505050915091565b6040518060e001604052806007905b60608152602001906001900390816117225790505090565b604051806101400160405280600a905b606081526020019060019003908161174a5790505090565b60405180608001604052806004905b60608152602001906001900390816117715790505090565b60008135905061179881612282565b92915050565b6000815190506117ad81612282565b92915050565b600082601f8301126117c457600080fd5b81516117d76117d2826120f7565b6120ca565b9150818183526020840193506020810190508360005b8381101561181d57815186016118038882611827565b8452602084019350602083019250506001810190506117ed565b5050505092915050565b600082601f83011261183857600080fd5b815161184b6118468261211f565b6120ca565b9150808252602083016020830185838301111561186757600080fd5b61187283828461223e565b50505092915050565b600082601f83011261188c57600080fd5b813561189f61189a8261214b565b6120ca565b915080825260208301602083018583830111156118bb57600080fd5b6118c683828461222f565b50505092915050565b600082601f8301126118e057600080fd5b81516118f36118ee8261214b565b6120ca565b9150808252602083016020830185838301111561190f57600080fd5b61191a83828461223e565b50505092915050565b60006020828403121561193557600080fd5b600061194384828501611789565b91505092915050565b600080600080600060a0868803121561196457600080fd5b60006119728882890161179e565b955050602086015167ffffffffffffffff81111561198f57600080fd5b61199b888289016118cf565b945050604086015167ffffffffffffffff8111156119b857600080fd5b6119c4888289016118cf565b935050606086015167ffffffffffffffff8111156119e157600080fd5b6119ed888289016117b3565b925050608086015167ffffffffffffffff811115611a0a57600080fd5b611a16888289016117b3565b9150509295509295909350565b60008060008060808587031215611a3957600080fd5b6000611a478782880161179e565b945050602085015167ffffffffffffffff811115611a6457600080fd5b611a70878288016118cf565b935050604085015167ffffffffffffffff811115611a8d57600080fd5b611a99878288016118cf565b925050606085015167ffffffffffffffff811115611ab657600080fd5b611ac2878288016118cf565b91505092959194509250565b600060208284031215611ae057600080fd5b600082013567ffffffffffffffff811115611afa57600080fd5b611b068482850161187b565b91505092915050565b60008060408385031215611b2257600080fd5b600083013567ffffffffffffffff811115611b3c57600080fd5b611b488582860161187b565b925050602083013567ffffffffffffffff811115611b6557600080fd5b611b718582860161187b565b9150509250929050565b600080600060608486031215611b9057600080fd5b600084013567ffffffffffffffff811115611baa57600080fd5b611bb68682870161187b565b935050602084013567ffffffffffffffff811115611bd357600080fd5b611bdf8682870161187b565b925050604084013567ffffffffffffffff811115611bfc57600080fd5b611c088682870161187b565b9150509250925092565b60008060008060808587031215611c2857600080fd5b600085013567ffffffffffffffff811115611c4257600080fd5b611c4e8782880161187b565b945050602085013567ffffffffffffffff811115611c6b57600080fd5b611c778782880161187b565b935050604085013567ffffffffffffffff811115611c9457600080fd5b611ca08782880161187b565b925050606085013567ffffffffffffffff811115611cbd57600080fd5b611cc98782880161187b565b91505092959194509250565b60008060008060008060c08789031215611cee57600080fd5b600087013567ffffffffffffffff811115611d0857600080fd5b611d1489828a0161187b565b965050602087013567ffffffffffffffff811115611d3157600080fd5b611d3d89828a0161187b565b955050604087013567ffffffffffffffff811115611d5a57600080fd5b611d6689828a0161187b565b945050606087013567ffffffffffffffff811115611d8357600080fd5b611d8f89828a0161187b565b935050608087013567ffffffffffffffff811115611dac57600080fd5b611db889828a0161187b565b92505060a087013567ffffffffffffffff811115611dd557600080fd5b611de189828a0161187b565b9150509295509295509295565b6000611dfa8383611eb0565b905092915050565b6000611e0d8261219c565b611e1781856121ca565b935083602082028501611e2985612177565b8060005b85811015611e655784840389528151611e468582611dee565b9450611e51836121bd565b925060208a01995050600181019050611e2d565b50829750879550505050505092915050565b6000611e82826121b2565b611e8c81856121ec565b9350611e9c81856020860161223e565b611ea581612271565b840191505092915050565b6000611ebb826121a7565b611ec581856121db565b9350611ed581856020860161223e565b611ede81612271565b840191505092915050565b600081546001811660008114611f065760018114611f2c57611f70565b607f6002830416611f1781876121ec565b955060ff198316865260208601935050611f70565b60028204611f3a81876121ec565b9550611f4585612187565b60005b82811015611f6757815481890152600182019150602081019050611f48565b80880195505050505b505092915050565b60006040820190508181036000830152611f928185611e02565b90508181036020830152611fa68184611e02565b90509392505050565b60006040820190508181036000830152611fc98185611e77565b90508181036020830152611fdd8184611e77565b90509392505050565b600060408201905081810360008301526120008185611e77565b905081810360208301526120148184611ee9565b90509392505050565b600060808201905081810360008301526120378187611e77565b9050818103602083015261204b8186611ee9565b9050818103604083015261205f8185611e02565b905081810360608301526120738184611e02565b905095945050505050565b600060608201905081810360008301526120988186611e77565b905081810360208301526120ac8185611ee9565b905081810360408301526120c08184611e77565b9050949350505050565b6000604051905081810181811067ffffffffffffffff821117156120ed57600080fd5b8060405250919050565b600067ffffffffffffffff82111561210e57600080fd5b602082029050602081019050919050565b600067ffffffffffffffff82111561213657600080fd5b601f19601f8301169050602081019050919050565b600067ffffffffffffffff82111561216257600080fd5b601f19601f8301169050602081019050919050565b6000819050602082019050919050565b60008190508160005260206000209050919050565b600081519050919050565b600081519050919050565b600081519050919050565b6000602082019050919050565b600082825260208201905092915050565b600082825260208201905092915050565b600082825260208201905092915050565b60006122088261220f565b9050919050565b600073ffffffffffffffffffffffffffffffffffffffff82169050919050565b82818337600083830152505050565b60005b8381101561225c578082015181840152602081019050612241565b8381111561226b576000848401525b50505050565b6000601f19601f8301169050919050565b61228b816121fd565b811461229657600080fd5b5056fea365627a7a7231582016321e77e6c751061c2f8e8cbb91409f26815149b5cf075afb3f44a10dace04e6c6578706572696d656e74616cf564736f6c63430005100040",
  "source": "pragma solidity ^0.5.16;\npragma experimental ABIEncoderV2;\n\nimport \"./GeneralStorage.sol\";\n\ncontract FactoryInfo  {\n    GeneralStorage generalStorage;\n\n    string  inFactoryTime = \"inFactoryTime\";\n    string  carCert = \"carCert\";\n    string  driver = \"driver\";\n    string  level = \"level\";\n    string  inWeight = \"inWeight\";\n    string  inPicHash = \"inPicHash\";\n    string  inVideoHash = \"inVideoHash\";\n\n    string  outFactoryTime = \"outFactoryTime\";\n    string  outPicHash = \"outPicHash\";\n    string  outWeight = \"outWeight\";\n\n\n    string  fundInfo = \"fundInfo\";\n    string  fundPicHash = \"fundPicHash\";\n    string  fundId = \"fundId\";\n    string  fundValue = \"fundValue\";\n    function setStorageAddress(address _addr) public{\n        generalStorage = GeneralStorage(_addr);\n    }\n\n    function setInFactory(bytes memory _id,bytes memory _date,\n                            bytes memory _cert,bytes memory _driver,\n                            bytes memory _lvl,\n                            bytes memory _weight) public{\n        generalStorage.setStorage(_id,bytes(inFactoryTime),_date);\n        generalStorage.setStorage(_id,bytes(carCert),_cert);\n        generalStorage.setStorage(_id,bytes(driver),_driver);\n        generalStorage.setStorage(_id,bytes(level),_lvl);\n        generalStorage.setStorage(_id,bytes(inWeight),_weight);\n    }\n\n    function setInPic(bytes memory _id,bytes memory _pic,bytes memory _video) public{\n        generalStorage.setStorage(_id,bytes(inPicHash),_pic);\n        generalStorage.setStorage(_id,bytes(inVideoHash),_video);\n    }\n\n    function getInFactoryInfo(bytes memory _id) public view returns(bytes[] memory,bytes[] memory){\n        bytes[] memory stages = new bytes[](7);\n        bytes[] memory values = new bytes[](7);\n        string[7] memory list = [\"inFactoryTime\",\"driver\",\"carCert\",\"level\",\"inWeight\",\"inPicHash\",\"inVideoHash\"];\n        for (uint i = 0; i < 7; i++) {\n            address from;\n            bytes memory idinfo;\n            bytes memory stage;\n            bytes memory value;\n            (from,idinfo,stage,value) = generalStorage.getStorage(_id,bytes(list[i]));\n            stages[i] = stage;\n            values[i] = value;\n        }\n        return (stages,values);\n    }\n\n    function setOutFactory(bytes memory _id,bytes memory _date,bytes memory _hash,bytes memory _weight) public{\n\n        generalStorage.setStorage(_id,bytes(outFactoryTime),_date);\n        generalStorage.setStorage(_id,bytes(outPicHash),_hash);\n        generalStorage.setStorage(_id,bytes(outWeight),_weight);\n    }\n\n    function setOutPic(bytes memory _id,bytes memory _pic) public{\n        generalStorage.setStorage(_id,bytes(outPicHash),_pic);\n    }\n\n    function getOutFactoryInfo(bytes memory _id) public view returns(bytes[] memory,bytes[] memory){\n        bytes[] memory stages = new bytes[](4);\n        bytes[] memory values = new bytes[](4);\n        string[4] memory list = [\"outFactoryTime\",\"outPicHash\",\"outWeight\",\"outPicHash\"];\n        for (uint i = 0; i < 4; i++) {\n            address from;\n            bytes memory idinfo;\n            bytes memory stage;\n            bytes memory value;\n            (from,idinfo,stage,value) = generalStorage.getStorage(_id,bytes(list[i]));\n            stages[i] = stage;\n            values[i] = value;\n        }\n        return (stages,values);\n    }\n\n\n    function setFund(bytes memory _id,bytes memory _pic,\n                    bytes memory _fundid,bytes memory _fundValue\n                    ) public{\n        bytes[] memory keys = new bytes[](3);\n        bytes[] memory values = new bytes[](3);\n        keys[0] = bytes(fundPicHash);\n        keys[1] = bytes(fundId);\n        keys[2] = bytes(fundValue);\n        values[0] = _pic;\n        values[1] = _fundid;\n        values[2] = _fundValue;\n        generalStorage.setMapStorage(_id,bytes(fundInfo),keys,values);\n    }\n\n    function getFund(bytes memory _id) public view returns(bytes[] memory,bytes[] memory){\n            address from;\n            bytes memory idinfo;\n            bytes memory stage;\n            bytes[] memory keys;\n            bytes[] memory values;\n           (from,idinfo,stage,keys,values) = generalStorage.getMapStorage(_id,bytes(fundInfo));\n           return (keys,values);\n    }\n\n    function getInfo(bytes memory _id) public view returns(bytes[] memory,bytes[] memory){\n\n        bytes[] memory stages = new bytes[](10);\n        bytes[] memory values = new bytes[](10);\n\n        string[10] memory list = [\"inFactoryTime\",\"carCert\",\"driver\",\"level\",\"inPicHash\",\"inVideoHash\",\"inWeight\",\"outFactoryTime\",\"outPicHash\",\"outWeight\"];\n\n        for (uint i = 0; i < 10; i++) {\n            address from;\n            bytes memory idinfo;\n            bytes memory stage;\n            bytes memory value;\n            (from,idinfo,stage,value) = generalStorage.getStorage(_id,bytes(list[i]));\n            stages[i] = stage;\n            values[i] = value;\n        }\n        return (stages,values);\n    }\n}",
  "sourcePath": "/Users/fieldlee/Downloads/Cita/SolidtyToJson/contracts/FactoryInfo.sol",
  "compiler": {
    "name": "solc",
    "version": "0.5.16+commit.9c3226ce.Emscripten.clang"
  },
  "schemaVersion": "3.2.0",
  "updatedAt": "2020-06-15T03:38:49.536Z",
  "devdoc": {
    "methods": {}
  },
  "userdoc": {
    "methods": {}
  }
}