{
  "contractName": "GeneralStorage",
  "abi": [
    {
      "inputs": [],
      "payable": false,
      "stateMutability": "nonpayable",
      "type": "constructor"
    },
    {
      "constant": false,
      "inputs": [
        {
          "internalType": "address",
          "name": "_address",
          "type": "address"
        }
      ],
      "name": "allowAccess",
      "outputs": [],
      "payable": false,
      "stateMutability": "nonpayable",
      "type": "function"
    },
    {
      "constant": false,
      "inputs": [
        {
          "internalType": "address",
          "name": "_address",
          "type": "address"
        }
      ],
      "name": "denyAccess",
      "outputs": [],
      "payable": false,
      "stateMutability": "nonpayable",
      "type": "function"
    },
    {
      "constant": false,
      "inputs": [
        {
          "internalType": "bytes",
          "name": "_id",
          "type": "bytes"
        },
        {
          "internalType": "bytes",
          "name": "_stage",
          "type": "bytes"
        },
        {
          "internalType": "bytes",
          "name": "_value",
          "type": "bytes"
        }
      ],
      "name": "setStorage",
      "outputs": [],
      "payable": false,
      "stateMutability": "nonpayable",
      "type": "function"
    },
    {
      "constant": false,
      "inputs": [
        {
          "internalType": "bytes",
          "name": "_id",
          "type": "bytes"
        },
        {
          "internalType": "bytes",
          "name": "_stage",
          "type": "bytes"
        },
        {
          "internalType": "bytes[]",
          "name": "_values",
          "type": "bytes[]"
        }
      ],
      "name": "setArrayStorage",
      "outputs": [],
      "payable": false,
      "stateMutability": "nonpayable",
      "type": "function"
    },
    {
      "constant": false,
      "inputs": [
        {
          "internalType": "bytes",
          "name": "_id",
          "type": "bytes"
        },
        {
          "internalType": "bytes",
          "name": "_stage",
          "type": "bytes"
        },
        {
          "internalType": "bytes",
          "name": "_value",
          "type": "bytes"
        }
      ],
      "name": "addArrayStorage",
      "outputs": [],
      "payable": false,
      "stateMutability": "nonpayable",
      "type": "function"
    },
    {
      "constant": false,
      "inputs": [
        {
          "internalType": "bytes",
          "name": "_id",
          "type": "bytes"
        },
        {
          "internalType": "bytes",
          "name": "_stage",
          "type": "bytes"
        },
        {
          "internalType": "bytes[]",
          "name": "_keys",
          "type": "bytes[]"
        },
        {
          "internalType": "bytes[]",
          "name": "_values",
          "type": "bytes[]"
        }
      ],
      "name": "setMapStorage",
      "outputs": [],
      "payable": false,
      "stateMutability": "nonpayable",
      "type": "function"
    },
    {
      "constant": true,
      "inputs": [
        {
          "internalType": "bytes",
          "name": "_id",
          "type": "bytes"
        },
        {
          "internalType": "bytes",
          "name": "_stage",
          "type": "bytes"
        }
      ],
      "name": "getStorage",
      "outputs": [
        {
          "internalType": "address",
          "name": "",
          "type": "address"
        },
        {
          "internalType": "bytes",
          "name": "",
          "type": "bytes"
        },
        {
          "internalType": "bytes",
          "name": "",
          "type": "bytes"
        },
        {
          "internalType": "bytes",
          "name": "",
          "type": "bytes"
        }
      ],
      "payable": false,
      "stateMutability": "view",
      "type": "function"
    },
    {
      "constant": true,
      "inputs": [
        {
          "internalType": "bytes",
          "name": "_id",
          "type": "bytes"
        },
        {
          "internalType": "bytes",
          "name": "_stage",
          "type": "bytes"
        }
      ],
      "name": "getMapStorage",
      "outputs": [
        {
          "internalType": "address",
          "name": "",
          "type": "address"
        },
        {
          "internalType": "bytes",
          "name": "",
          "type": "bytes"
        },
        {
          "internalType": "bytes",
          "name": "",
          "type": "bytes"
        },
        {
          "internalType": "bytes[]",
          "name": "",
          "type": "bytes[]"
        },
        {
          "internalType": "bytes[]",
          "name": "",
          "type": "bytes[]"
        }
      ],
      "payable": false,
      "stateMutability": "view",
      "type": "function"
    }
  ],
  "bytecode": "0x608060405234801561001057600080fd5b5060018060003373ffffffffffffffffffffffffffffffffffffffff1673ffffffffffffffffffffffffffffffffffffffff16815260200190815260200160002060006101000a81548160ff021916908315150217905550611c29806100776000396000f3fe608060405234801561001057600080fd5b50600436106100885760003560e01c8063aad22a701161005b578063aad22a701461012c578063c498da2414610148578063c4a85bc114610164578063e4beeefe1461018057610088565b806361afd5ac1461008d5780636afee492146100a957806381ba85f9146100dd5780638416fbe614610110575b600080fd5b6100a760048036036100a291908101906114e9565b61019c565b005b6100c360048036036100be9190810190611512565b61028a565b6040516100d4959493929190611927565b60405180910390f35b6100f760048036036100f29190810190611512565b61066a565b6040516101079493929190611996565b60405180910390f35b61012a60048036036101259190810190611615565b610a3e565b005b610146600480360361014191908101906116d8565b610c06565b005b610162600480360361015d91908101906116d8565b610dc4565b005b61017e600480360361017991908101906114e9565b610ed6565b005b61019a6004803603610195919081019061157e565b610fc3565b005b60011515600160003373ffffffffffffffffffffffffffffffffffffffff1673ffffffffffffffffffffffffffffffffffffffff16815260200190815260200160002060009054906101000a900460ff1615151461022f576040517f08c379a0000000000000000000000000000000000000000000000000000000008152600401610226906119f0565b60405180910390fd5b6000600160008373ffffffffffffffffffffffffffffffffffffffff1673ffffffffffffffffffffffffffffffffffffffff16815260200190815260200160002060006101000a81548160ff02191690831515021790555050565b600060608060608060011515600160003373ffffffffffffffffffffffffffffffffffffffff1673ffffffffffffffffffffffffffffffffffffffff16815260200190815260200160002060009054906101000a900460ff16151514610325576040517f08c379a000000000000000000000000000000000000000000000000000000000815260040161031c906119f0565b60405180910390fd5b61032d611181565b60008860405161033d9190611910565b9081526020016040518091039020876040516103599190611910565b90815260200160405180910390206040518060800160405290816000820160009054906101000a900473ffffffffffffffffffffffffffffffffffffffff1673ffffffffffffffffffffffffffffffffffffffff1673ffffffffffffffffffffffffffffffffffffffff168152602001600182018054600181600116156101000203166002900480601f0160208091040260200160405190810160405280929190818152602001828054600181600116156101000203166002900480156104615780601f1061043657610100808354040283529160200191610461565b820191906000526020600020905b81548152906001019060200180831161044457829003601f168201915b5050505050815260200160028201805480602002602001604051908101604052809291908181526020016000905b8282101561054b578382906000526020600020018054600181600116156101000203166002900480601f0160208091040260200160405190810160405280929190818152602001828054600181600116156101000203166002900480156105375780601f1061050c57610100808354040283529160200191610537565b820191906000526020600020905b81548152906001019060200180831161051a57829003601f168201915b50505050508152602001906001019061048f565b50505050815260200160038201805480602002602001604051908101604052809291908181526020016000905b82821015610634578382906000526020600020018054600181600116156101000203166002900480601f0160208091040260200160405190810160405280929190818152602001828054600181600116156101000203166002900480156106205780601f106105f557610100808354040283529160200191610620565b820191906000526020600020905b81548152906001019060200180831161060357829003601f168201915b505050505081526020019060010190610578565b50505050815250509050806000015188888360400151846060015181915080905095509550955095509550509295509295909350565b6000606080606060011515600160003373ffffffffffffffffffffffffffffffffffffffff1673ffffffffffffffffffffffffffffffffffffffff16815260200190815260200160002060009054906101000a900460ff16151514610704576040517f08c379a00000000000000000000000000000000000000000000000000000000081526004016106fb906119f0565b60405180910390fd5b61070c611181565b60008760405161071c9190611910565b9081526020016040518091039020866040516107389190611910565b90815260200160405180910390206040518060800160405290816000820160009054906101000a900473ffffffffffffffffffffffffffffffffffffffff1673ffffffffffffffffffffffffffffffffffffffff1673ffffffffffffffffffffffffffffffffffffffff168152602001600182018054600181600116156101000203166002900480601f0160208091040260200160405190810160405280929190818152602001828054600181600116156101000203166002900480156108405780601f1061081557610100808354040283529160200191610840565b820191906000526020600020905b81548152906001019060200180831161082357829003601f168201915b5050505050815260200160028201805480602002602001604051908101604052809291908181526020016000905b8282101561092a578382906000526020600020018054600181600116156101000203166002900480601f0160208091040260200160405190810160405280929190818152602001828054600181600116156101000203166002900480156109165780601f106108eb57610100808354040283529160200191610916565b820191906000526020600020905b8154815290600101906020018083116108f957829003601f168201915b50505050508152602001906001019061086e565b50505050815260200160038201805480602002602001604051908101604052809291908181526020016000905b82821015610a13578382906000526020600020018054600181600116156101000203166002900480601f0160208091040260200160405190810160405280929190818152602001828054600181600116156101000203166002900480156109ff5780601f106109d4576101008083540402835291602001916109ff565b820191906000526020600020905b8154815290600101906020018083116109e257829003601f168201915b505050505081526020019060010190610957565b5050505081525050905080600001518787836020015180905094509450945094505092959194509250565b60011515600160003373ffffffffffffffffffffffffffffffffffffffff1673ffffffffffffffffffffffffffffffffffffffff16815260200190815260200160002060009054906101000a900460ff16151514610ad1576040517f08c379a0000000000000000000000000000000000000000000000000000000008152600401610ac8906119f0565b60405180910390fd5b610ad9611181565b32816000019073ffffffffffffffffffffffffffffffffffffffff16908173ffffffffffffffffffffffffffffffffffffffff168152505082816040018190525081816060018190525080600086604051610b349190611910565b908152602001604051809103902085604051610b509190611910565b908152602001604051809103902060008201518160000160006101000a81548173ffffffffffffffffffffffffffffffffffffffff021916908373ffffffffffffffffffffffffffffffffffffffff1602179055506020820151816001019080519060200190610bc19291906111bf565b506040820151816002019080519060200190610bde92919061123f565b506060820151816003019080519060200190610bfb92919061123f565b509050505050505050565b60011515600160003373ffffffffffffffffffffffffffffffffffffffff1673ffffffffffffffffffffffffffffffffffffffff16815260200190815260200160002060009054906101000a900460ff16151514610c99576040517f08c379a0000000000000000000000000000000000000000000000000000000008152600401610c90906119f0565b60405180910390fd5b610ca1611181565b32816000019073ffffffffffffffffffffffffffffffffffffffff16908173ffffffffffffffffffffffffffffffffffffffff168152505081816020018190525080600085604051610cf39190611910565b908152602001604051809103902084604051610d0f9190611910565b908152602001604051809103902060008201518160000160006101000a81548173ffffffffffffffffffffffffffffffffffffffff021916908373ffffffffffffffffffffffffffffffffffffffff1602179055506020820151816001019080519060200190610d809291906111bf565b506040820151816002019080519060200190610d9d92919061123f565b506060820151816003019080519060200190610dba92919061123f565b5090505050505050565b60011515600160003373ffffffffffffffffffffffffffffffffffffffff1673ffffffffffffffffffffffffffffffffffffffff16815260200190815260200160002060009054906101000a900460ff16151514610e57576040517f08c379a0000000000000000000000000000000000000000000000000000000008152600401610e4e906119f0565b60405180910390fd5b600083604051610e679190611910565b908152602001604051809103902082604051610e839190611910565b9081526020016040518091039020600301819080600181540180825580915050906001820390600052602060002001600090919290919091509080519060200190610ecf92919061129f565b5050505050565b60011515600160003373ffffffffffffffffffffffffffffffffffffffff1673ffffffffffffffffffffffffffffffffffffffff16815260200190815260200160002060009054906101000a900460ff16151514610f69576040517f08c379a0000000000000000000000000000000000000000000000000000000008152600401610f60906119f0565b60405180910390fd5b60018060008373ffffffffffffffffffffffffffffffffffffffff1673ffffffffffffffffffffffffffffffffffffffff16815260200190815260200160002060006101000a81548160ff02191690831515021790555050565b60011515600160003373ffffffffffffffffffffffffffffffffffffffff1673ffffffffffffffffffffffffffffffffffffffff16815260200190815260200160002060009054906101000a900460ff16151514611056576040517f08c379a000000000000000000000000000000000000000000000000000000000815260040161104d906119f0565b60405180910390fd5b61105e611181565b32816000019073ffffffffffffffffffffffffffffffffffffffff16908173ffffffffffffffffffffffffffffffffffffffff1681525050818160600181905250806000856040516110b09190611910565b9081526020016040518091039020846040516110cc9190611910565b908152602001604051809103902060008201518160000160006101000a81548173ffffffffffffffffffffffffffffffffffffffff021916908373ffffffffffffffffffffffffffffffffffffffff160217905550602082015181600101908051906020019061113d9291906111bf565b50604082015181600201908051906020019061115a92919061123f565b50606082015181600301908051906020019061117792919061123f565b5090505050505050565b6040518060800160405280600073ffffffffffffffffffffffffffffffffffffffff1681526020016060815260200160608152602001606081525090565b828054600181600116156101000203166002900490600052602060002090601f016020900481019282601f1061120057805160ff191683800117855561122e565b8280016001018555821561122e579182015b8281111561122d578251825591602001919060010190611212565b5b50905061123b919061131f565b5090565b82805482825590600052602060002090810192821561128e579160200282015b8281111561128d57825182908051906020019061127d9291906111bf565b509160200191906001019061125f565b5b50905061129b9190611344565b5090565b828054600181600116156101000203166002900490600052602060002090601f016020900481019282601f106112e057805160ff191683800117855561130e565b8280016001018555821561130e579182015b8281111561130d5782518255916020019190600101906112f2565b5b50905061131b919061131f565b5090565b61134191905b8082111561133d576000816000905550600101611325565b5090565b90565b61136d91905b8082111561136957600081816113609190611370565b5060010161134a565b5090565b90565b50805460018160011615610100020316600290046000825580601f1061139657506113b5565b601f0160209004906000526020600020908101906113b4919061131f565b5b50565b6000813590506113c781611bcf565b92915050565b600082601f8301126113de57600080fd5b81356113f16113ec82611a3d565b611a10565b9150818183526020840193506020810190508360005b83811015611437578135860161141d8882611441565b845260208401935060208301925050600181019050611407565b5050505092915050565b600082601f83011261145257600080fd5b813561146561146082611a65565b611a10565b9150808252602083016020830185838301111561148157600080fd5b61148c838284611b7c565b50505092915050565b600082601f8301126114a657600080fd5b81356114b96114b482611a91565b611a10565b915080825260208301602083018583830111156114d557600080fd5b6114e0838284611b7c565b50505092915050565b6000602082840312156114fb57600080fd5b6000611509848285016113b8565b91505092915050565b6000806040838503121561152557600080fd5b600083013567ffffffffffffffff81111561153f57600080fd5b61154b85828601611495565b925050602083013567ffffffffffffffff81111561156857600080fd5b61157485828601611495565b9150509250929050565b60008060006060848603121561159357600080fd5b600084013567ffffffffffffffff8111156115ad57600080fd5b6115b986828701611495565b935050602084013567ffffffffffffffff8111156115d657600080fd5b6115e286828701611495565b925050604084013567ffffffffffffffff8111156115ff57600080fd5b61160b868287016113cd565b9150509250925092565b6000806000806080858703121561162b57600080fd5b600085013567ffffffffffffffff81111561164557600080fd5b61165187828801611495565b945050602085013567ffffffffffffffff81111561166e57600080fd5b61167a87828801611495565b935050604085013567ffffffffffffffff81111561169757600080fd5b6116a3878288016113cd565b925050606085013567ffffffffffffffff8111156116c057600080fd5b6116cc878288016113cd565b91505092959194509250565b6000806000606084860312156116ed57600080fd5b600084013567ffffffffffffffff81111561170757600080fd5b61171386828701611495565b935050602084013567ffffffffffffffff81111561173057600080fd5b61173c86828701611495565b925050604084013567ffffffffffffffff81111561175957600080fd5b61176586828701611495565b9150509250925092565b600061177b8383611871565b905092915050565b61178c81611b4a565b82525050565b600061179d82611acd565b6117a78185611afb565b9350836020820285016117b985611abd565b8060005b858110156117f557848403895281516117d6858261176f565b94506117e183611aee565b925060208a019950506001810190506117bd565b50829750879550505050505092915050565b600061181282611ae3565b61181c8185611b1d565b935061182c818560208601611b8b565b61183581611bbe565b840191505092915050565b600061184b82611ae3565b6118558185611b2e565b9350611865818560208601611b8b565b80840191505092915050565b600061187c82611ad8565b6118868185611b0c565b9350611896818560208601611b8b565b61189f81611bbe565b840191505092915050565b60006118b7602483611b39565b91507f7468652061646472657373206e6f7420616c6c6f776564207468652073746f7260008301527f61676521000000000000000000000000000000000000000000000000000000006020830152604082019050919050565b600061191c8284611840565b915081905092915050565b600060a08201905061193c6000830188611783565b818103602083015261194e8187611807565b905081810360408301526119628186611807565b905081810360608301526119768185611792565b9050818103608083015261198a8184611792565b90509695505050505050565b60006080820190506119ab6000830187611783565b81810360208301526119bd8186611807565b905081810360408301526119d18185611807565b905081810360608301526119e58184611807565b905095945050505050565b60006020820190508181036000830152611a09816118aa565b9050919050565b6000604051905081810181811067ffffffffffffffff82111715611a3357600080fd5b8060405250919050565b600067ffffffffffffffff821115611a5457600080fd5b602082029050602081019050919050565b600067ffffffffffffffff821115611a7c57600080fd5b601f19601f8301169050602081019050919050565b600067ffffffffffffffff821115611aa857600080fd5b601f19601f8301169050602081019050919050565b6000819050602082019050919050565b600081519050919050565b600081519050919050565b600081519050919050565b6000602082019050919050565b600082825260208201905092915050565b600082825260208201905092915050565b600082825260208201905092915050565b600081905092915050565b600082825260208201905092915050565b6000611b5582611b5c565b9050919050565b600073ffffffffffffffffffffffffffffffffffffffff82169050919050565b82818337600083830152505050565b60005b83811015611ba9578082015181840152602081019050611b8e565b83811115611bb8576000848401525b50505050565b6000601f19601f8301169050919050565b611bd881611b4a565b8114611be357600080fd5b5056fea365627a7a72315820188eeca51825c20e5bcfe00d59a084190532917cbde17af22029d6ed105c29a86c6578706572696d656e74616cf564736f6c63430005100040",
  "source": "pragma solidity ^0.5.16;\npragma experimental ABIEncoderV2;\n\ncontract GeneralStorage {\n\n    enum StorageType{ BYTES, UINT32, UINT64,UINT256,ARRAY,MAP }\n    //   StorageType stype;\n    struct Storage {\n      address from;\n      bytes value;\n      bytes[] arraykeys;\n      bytes[] arrayvalue;\n    }\n\n    // id => stage => storage\n    mapping(bytes => mapping(bytes => Storage)) private _storage;\n\n    // allow access contract address\n    mapping(address => bool) private _accessAllowed;\n    // set deploy address to allow access\n    constructor()public{\n        _accessAllowed[msg.sender] = true;\n    }\n\n    modifier isPlatform()  {\n        require(_accessAllowed[msg.sender] == true,\"the address not allowed the storage!\");\n        _;\n    }\n\n    function allowAccess(address _address) public isPlatform  {\n        _accessAllowed[_address] = true;\n    }\n    \n    function denyAccess(address _address) public isPlatform  {\n        _accessAllowed[_address] = false;\n    }\n\n   function setStorage(bytes memory _id,bytes memory _stage,bytes memory _value)public isPlatform{\n       Storage memory store_info;\n       store_info.from = tx.origin;\n    //    store_info.stype = _type;\n       store_info.value = _value;\n       _storage[_id][_stage] = store_info;\n   }\n\n   function setArrayStorage(bytes memory _id,bytes memory _stage,bytes[] memory _values)public isPlatform{\n       Storage memory store_info;\n       store_info.from = tx.origin;\n    //    store_info.stype = _type;\n       store_info.arrayvalue = _values;\n       _storage[_id][_stage] = store_info;\n   }\n\n   function addArrayStorage(bytes memory _id,bytes memory _stage,bytes memory _value)public isPlatform{\n       _storage[_id][_stage].arrayvalue.push(_value);\n   }\n\n   function setMapStorage(bytes memory _id,bytes memory _stage,bytes[] memory _keys,bytes[] memory _values)public isPlatform{\n       Storage memory store_info;\n       store_info.from = tx.origin;\n    //    store_info.stype = _type;\n       store_info.arraykeys = _keys;\n       store_info.arrayvalue = _values;\n       _storage[_id][_stage] = store_info;\n   }\n\n   function getStorage(bytes memory _id,bytes memory _stage) public view isPlatform  returns(address,bytes memory,bytes memory,bytes memory){\n       Storage memory store_info = _storage[_id][_stage];\n       return (store_info.from,_id,_stage,store_info.value);\n   }\n\n   function getMapStorage(bytes memory _id,bytes memory _stage) public view isPlatform  returns(address,bytes memory,bytes memory,bytes[] memory,bytes[] memory){\n       Storage memory store_info = _storage[_id][_stage];\n       return (store_info.from,_id,_stage,store_info.arraykeys,store_info.arrayvalue);\n   }\n}\n",
  "sourcePath": "/Users/fieldlee/Downloads/Cita/SolidtyToJson/contracts/GeneralStorage.sol",
  "compiler": {
    "name": "solc",
    "version": "0.5.16+commit.9c3226ce.Emscripten.clang"
  },
  "schemaVersion": "3.1.0",
  "updatedAt": "2020-05-25T09:03:23.072Z",
  "devdoc": {
    "methods": {}
  },
  "userdoc": {
    "methods": {}
  }
}