{
  "contractName": "MultiAddress",
  "abi": [
    {
      "constant": true,
      "inputs": [],
      "name": "numAddress",
      "outputs": [
        {
          "name": "",
          "type": "uint256"
        }
      ],
      "payable": false,
      "stateMutability": "view",
      "type": "function"
    },
    {
      "inputs": [],
      "payable": false,
      "stateMutability": "nonpayable",
      "type": "constructor"
    },
    {
      "constant": false,
      "inputs": [
        {
          "name": "listAddresses",
          "type": "address[]"
        }
      ],
      "name": "addListAddresses",
      "outputs": [
        {
          "name": "",
          "type": "uint256"
        }
      ],
      "payable": false,
      "stateMutability": "nonpayable",
      "type": "function"
    },
    {
      "constant": true,
      "inputs": [],
      "name": "getListAddresses",
      "outputs": [
        {
          "name": "",
          "type": "address[]"
        }
      ],
      "payable": false,
      "stateMutability": "view",
      "type": "function"
    },
    {
      "constant": true,
      "inputs": [
        {
          "name": "list",
          "type": "address[]"
        }
      ],
      "name": "getAddressesNum",
      "outputs": [
        {
          "name": "",
          "type": "uint256"
        }
      ],
      "payable": false,
      "stateMutability": "pure",
      "type": "function"
    },
    {
      "constant": false,
      "inputs": [
        {
          "name": "add",
          "type": "address"
        },
        {
          "name": "name",
          "type": "string"
        },
        {
          "name": "age",
          "type": "uint256"
        }
      ],
      "name": "setUser",
      "outputs": [
        {
          "name": "",
          "type": "bool"
        }
      ],
      "payable": false,
      "stateMutability": "nonpayable",
      "type": "function"
    },
    {
      "constant": true,
      "inputs": [
        {
          "name": "add",
          "type": "address"
        }
      ],
      "name": "getUserName",
      "outputs": [
        {
          "name": "",
          "type": "string"
        }
      ],
      "payable": false,
      "stateMutability": "view",
      "type": "function"
    },
    {
      "constant": true,
      "inputs": [
        {
          "name": "add",
          "type": "address"
        }
      ],
      "name": "getUserAge",
      "outputs": [
        {
          "name": "",
          "type": "uint256"
        }
      ],
      "payable": false,
      "stateMutability": "view",
      "type": "function"
    }
  ],
  "bytecode": "0x608060405234801561001057600080fd5b50336000806101000a81548173ffffffffffffffffffffffffffffffffffffffff021916908373ffffffffffffffffffffffffffffffffffffffff160217905550610900806100606000396000f300608060405260043610610083576000357c0100000000000000000000000000000000000000000000000000000000900463ffffffff1680632560fb2e14610088578063757ee269146101025780638be7dae51461016e578063af431f0314610199578063d3ab8dfb14610244578063d84f55ee1461029b578063ed7be39814610357575b600080fd5b34801561009457600080fd5b506100ec600480360381019080803590602001908201803590602001908080602002602001604051908101604052809392919081815260200183836020028082843782019150505050505091929192905050506103d1565b6040518082815260200191505060405180910390f35b34801561010e57600080fd5b5061011761052f565b6040518080602001828103825283818151815260200191508051906020019060200280838360005b8381101561015a57808201518184015260208101905061013f565b505050509050019250505060405180910390f35b34801561017a57600080fd5b506101836105bd565b6040518082815260200191505060405180910390f35b3480156101a557600080fd5b5061022a600480360381019080803573ffffffffffffffffffffffffffffffffffffffff169060200190929190803590602001908201803590602001908080601f0160208091040260200160405190810160405280939291908181526020018383808284378201915050505050509192919290803590602001909291905050506105c3565b604051808215151515815260200191505060405180910390f35b34801561025057600080fd5b50610285600480360381019080803573ffffffffffffffffffffffffffffffffffffffff16906020019092919050505061064e565b6040518082815260200191505060405180910390f35b3480156102a757600080fd5b506102dc600480360381019080803573ffffffffffffffffffffffffffffffffffffffff16906020019092919050505061069a565b6040518080602001828103825283818151815260200191508051906020019080838360005b8381101561031c578082015181840152602081019050610301565b50505050905090810190601f1680156103495780820380516001836020036101000a031916815260200191505b509250505060405180910390f35b34801561036357600080fd5b506103bb6004803603810190808035906020019082018035906020019080806020026020016040519081016040528093929190818152602001838360200280828437820191505050505050919291929050505061077e565b6040518082815260200191505060405180910390f35b600080600090505b825181101561052457610489600280548060200260200160405190810160405280929190818152602001828054801561046757602002820191906000526020600020905b8160009054906101000a900473ffffffffffffffffffffffffffffffffffffffff1673ffffffffffffffffffffffffffffffffffffffff168152602001906001019080831161041d575b5050505050848381518110151561047a57fe5b906020019060200201516107b1565b15610517576002838281518110151561049e57fe5b9060200190602002015190806001815401808255809150509060018203906000526020600020016000909192909190916101000a81548173ffffffffffffffffffffffffffffffffffffffff021916908373ffffffffffffffffffffffffffffffffffffffff1602179055505060018054016001819055505b80806001019150506103d9565b600154915050919050565b606060028054806020026020016040519081016040528092919081815260200182805480156105b357602002820191906000526020600020905b8160009054906101000a900473ffffffffffffffffffffffffffffffffffffffff1673ffffffffffffffffffffffffffffffffffffffff1681526020019060010190808311610569575b5050505050905090565b60015481565b6000604080519081016040528084815260200183815250600360008673ffffffffffffffffffffffffffffffffffffffff1673ffffffffffffffffffffffffffffffffffffffff168152602001908152602001600020600082015181600001908051906020019061063592919061082f565b5060208201518160010155905050600190509392505050565b6000600360008373ffffffffffffffffffffffffffffffffffffffff1673ffffffffffffffffffffffffffffffffffffffff168152602001908152602001600020600101549050919050565b6060600360008373ffffffffffffffffffffffffffffffffffffffff1673ffffffffffffffffffffffffffffffffffffffff1681526020019081526020016000206000018054600181600116156101000203166002900480601f0160208091040260200160405190810160405280929190818152602001828054600181600116156101000203166002900480156107725780601f1061074757610100808354040283529160200191610772565b820191906000526020600020905b81548152906001019060200180831161075557829003601f168201915b50505050509050919050565b6000806000809150600090505b83518110156107a757600182019150808060010191505061078b565b8192505050919050565b600080600090505b8351811015610823578273ffffffffffffffffffffffffffffffffffffffff1684828151811015156107e757fe5b9060200190602002015173ffffffffffffffffffffffffffffffffffffffff1614156108165760009150610828565b80806001019150506107b9565b600191505b5092915050565b828054600181600116156101000203166002900490600052602060002090601f016020900481019282601f1061087057805160ff191683800117855561089e565b8280016001018555821561089e579182015b8281111561089d578251825591602001919060010190610882565b5b5090506108ab91906108af565b5090565b6108d191905b808211156108cd5760008160009055506001016108b5565b5090565b905600a165627a7a7230582058e96dacfaf2ee72ee0a00393c33b7227f949fc063176846d0b7fbacb97bfd080029",
  "source": "pragma solidity ^0.4.23;\n\ncontract MultiAddress{\n    address private owner;\n    uint public numAddress;\n    address[] private gotAddresses;\n    struct User {\n        string name;\n        uint age;\n    }\n    mapping(address=>User) private userInfo;\n\n    constructor() public {\n        owner = msg.sender;\n    }\n\n    function hasEle(address[] list , address ele) pure private returns(bool){\n        for (uint index = 0; index < list.length; index++) {\n            if (list[index] == ele) {\n                return false;\n            }\n        }\n        return true;\n    }\n\n    function addListAddresses(address[] listAddresses) public returns (uint){\n        for (uint index = 0; index < listAddresses.length; index++) {\n            if (hasEle(gotAddresses,listAddresses[index])) {\n                gotAddresses.push(listAddresses[index]);\n                numAddress = numAddress + 1;\n            } \n        }\n        return numAddress;\n    }\n    function getListAddresses() view public returns (address[]){\n        return gotAddresses;\n    }\n\n\n    function getAddressesNum(address[] list) pure public returns (uint){\n        uint numList = 0;\n        for (uint index = 0; index < list.length; index++) {\n            numList += 1;\n        }\n        return numList;\n    }\n\n    function setUser(address add , string name , uint age) public returns(bool){\n        userInfo[add] = User({name:name,age:age});\n        return true;   \n    }\n\n    function getUserName(address add) view public returns (string) {\n        return userInfo[add].name;\n    }\n    function getUserAge(address add) view public returns (uint) {\n        return userInfo[add].age;\n    }\n}",
  "sourcePath": "/Users/depengli/Desktop/geth/multiAddress/contracts/MultiAddress.sol",
  "compiler": {
    "name": "solc",
    "version": "0.4.24+commit.e67f0147.Emscripten.clang"
  },
  "schemaVersion": "2.0.1",
  "updatedAt": "2018-10-10T07:50:28.687Z"
}