{
  "contractName": "StockInterface",
  "abi": [
    {
      "inputs": [],
      "payable": false,
      "stateMutability": "nonpayable",
      "type": "constructor"
    },
    {
      "anonymous": false,
      "inputs": [
        {
          "indexed": true,
          "internalType": "address",
          "name": "_owner",
          "type": "address"
        },
        {
          "indexed": true,
          "internalType": "address",
          "name": "_spender",
          "type": "address"
        },
        {
          "indexed": false,
          "internalType": "uint256",
          "name": "_value",
          "type": "uint256"
        }
      ],
      "name": "Approval",
      "type": "event"
    },
    {
      "anonymous": false,
      "inputs": [
        {
          "indexed": true,
          "internalType": "address",
          "name": "_from",
          "type": "address"
        },
        {
          "indexed": true,
          "internalType": "address",
          "name": "_to",
          "type": "address"
        },
        {
          "indexed": false,
          "internalType": "uint256",
          "name": "_value",
          "type": "uint256"
        }
      ],
      "name": "Transfer",
      "type": "event"
    },
    {
      "constant": true,
      "inputs": [],
      "name": "getName",
      "outputs": [
        {
          "internalType": "bytes32",
          "name": "",
          "type": "bytes32"
        }
      ],
      "payable": false,
      "stateMutability": "view",
      "type": "function"
    },
    {
      "constant": true,
      "inputs": [],
      "name": "getDecimals",
      "outputs": [
        {
          "internalType": "uint8",
          "name": "",
          "type": "uint8"
        }
      ],
      "payable": false,
      "stateMutability": "view",
      "type": "function"
    },
    {
      "constant": true,
      "inputs": [
        {
          "internalType": "address",
          "name": "_address",
          "type": "address"
        }
      ],
      "name": "getStock",
      "outputs": [
        {
          "internalType": "bytes32",
          "name": "",
          "type": "bytes32"
        },
        {
          "internalType": "bytes32",
          "name": "",
          "type": "bytes32"
        }
      ],
      "payable": false,
      "stateMutability": "view",
      "type": "function"
    },
    {
      "constant": false,
      "inputs": [
        {
          "internalType": "address",
          "name": "_addr",
          "type": "address"
        },
        {
          "internalType": "bytes32",
          "name": "_name",
          "type": "bytes32"
        },
        {
          "internalType": "bytes32",
          "name": "_telno",
          "type": "bytes32"
        }
      ],
      "name": "setStock",
      "outputs": [
        {
          "internalType": "bool",
          "name": "",
          "type": "bool"
        }
      ],
      "payable": false,
      "stateMutability": "nonpayable",
      "type": "function"
    },
    {
      "constant": true,
      "inputs": [
        {
          "internalType": "address",
          "name": "_address",
          "type": "address"
        }
      ],
      "name": "getStore",
      "outputs": [
        {
          "internalType": "bytes32",
          "name": "",
          "type": "bytes32"
        },
        {
          "internalType": "uint32",
          "name": "",
          "type": "uint32"
        }
      ],
      "payable": false,
      "stateMutability": "view",
      "type": "function"
    },
    {
      "constant": false,
      "inputs": [
        {
          "internalType": "address",
          "name": "_addr",
          "type": "address"
        },
        {
          "internalType": "bytes32",
          "name": "_name",
          "type": "bytes32"
        },
        {
          "internalType": "uint32",
          "name": "_amount",
          "type": "uint32"
        }
      ],
      "name": "setStore",
      "outputs": [
        {
          "internalType": "bool",
          "name": "",
          "type": "bool"
        }
      ],
      "payable": false,
      "stateMutability": "nonpayable",
      "type": "function"
    }
  ],
  "bytecode": "0x6080604052734cdb93400db58593aa348341a6220cd083858676600160006101000a81548173ffffffffffffffffffffffffffffffffffffffff021916908373ffffffffffffffffffffffffffffffffffffffff16021790555034801561006557600080fd5b50600160009054906101000a900473ffffffffffffffffffffffffffffffffffffffff166000806101000a81548173ffffffffffffffffffffffffffffffffffffffff021916908373ffffffffffffffffffffffffffffffffffffffff1602179055506107b4806100d76000396000f3fe608060405234801561001057600080fd5b50600436106100625760003560e01c806317d7de7c146100675780634b4ffccd1461008557806371046909146100f057806385cbb95414610160578063c5eaabfb146101d6578063f0141d8414610235575b600080fd5b61006f610259565b6040518082815260200191505060405180910390f35b6100c76004803603602081101561009b57600080fd5b81019080803573ffffffffffffffffffffffffffffffffffffffff169060200190929190505050610302565b604051808381526020018263ffffffff1663ffffffff1681526020019250505060405180910390f35b6101466004803603606081101561010657600080fd5b81019080803573ffffffffffffffffffffffffffffffffffffffff16906020019092919080359060200190929190803590602001909291905050506103f0565b604051808215151515815260200191505060405180910390f35b6101bc6004803603606081101561017657600080fd5b81019080803573ffffffffffffffffffffffffffffffffffffffff16906020019092919080359060200190929190803563ffffffff1690602001909291905050506104e6565b604051808215151515815260200191505060405180910390f35b610218600480360360208110156101ec57600080fd5b81019080803573ffffffffffffffffffffffffffffffffffffffff1690602001909291905050506105e8565b604051808381526020018281526020019250505060405180910390f35b61023d6106d6565b604051808260ff1660ff16815260200191505060405180910390f35b60008060009054906101000a900473ffffffffffffffffffffffffffffffffffffffff1673ffffffffffffffffffffffffffffffffffffffff166317d7de7c6040518163ffffffff1660e01b815260040160206040518083038186803b1580156102c257600080fd5b505afa1580156102d6573d6000803e3d6000fd5b505050506040513d60208110156102ec57600080fd5b8101908080519060200190929190505050905090565b6000806000809054906101000a900473ffffffffffffffffffffffffffffffffffffffff1673ffffffffffffffffffffffffffffffffffffffff16634b4ffccd846040518263ffffffff1660e01b8152600401808273ffffffffffffffffffffffffffffffffffffffff1673ffffffffffffffffffffffffffffffffffffffff168152602001915050604080518083038186803b1580156103a257600080fd5b505afa1580156103b6573d6000803e3d6000fd5b505050506040513d60408110156103cc57600080fd5b81019080805190602001909291908051906020019092919050505091509150915091565b60008060009054906101000a900473ffffffffffffffffffffffffffffffffffffffff1673ffffffffffffffffffffffffffffffffffffffff1663710469098585856040518463ffffffff1660e01b8152600401808473ffffffffffffffffffffffffffffffffffffffff1673ffffffffffffffffffffffffffffffffffffffff1681526020018381526020018281526020019350505050602060405180830381600087803b1580156104a257600080fd5b505af11580156104b6573d6000803e3d6000fd5b505050506040513d60208110156104cc57600080fd5b810190808051906020019092919050505090509392505050565b60008060009054906101000a900473ffffffffffffffffffffffffffffffffffffffff1673ffffffffffffffffffffffffffffffffffffffff166385cbb9548585856040518463ffffffff1660e01b8152600401808473ffffffffffffffffffffffffffffffffffffffff1673ffffffffffffffffffffffffffffffffffffffff1681526020018381526020018263ffffffff1663ffffffff1681526020019350505050602060405180830381600087803b1580156105a457600080fd5b505af11580156105b8573d6000803e3d6000fd5b505050506040513d60208110156105ce57600080fd5b810190808051906020019092919050505090509392505050565b6000806000809054906101000a900473ffffffffffffffffffffffffffffffffffffffff1673ffffffffffffffffffffffffffffffffffffffff1663c5eaabfb846040518263ffffffff1660e01b8152600401808273ffffffffffffffffffffffffffffffffffffffff1673ffffffffffffffffffffffffffffffffffffffff168152602001915050604080518083038186803b15801561068857600080fd5b505afa15801561069c573d6000803e3d6000fd5b505050506040513d60408110156106b257600080fd5b81019080805190602001909291908051906020019092919050505091509150915091565b60008060009054906101000a900473ffffffffffffffffffffffffffffffffffffffff1673ffffffffffffffffffffffffffffffffffffffff1663f0141d846040518163ffffffff1660e01b815260040160206040518083038186803b15801561073f57600080fd5b505afa158015610753573d6000803e3d6000fd5b505050506040513d602081101561076957600080fd5b810190808051906020019092919050505090509056fea265627a7a72315820a910c9d346f98c843ef08a6261869465879a93c4edcaa9cc93a34a8cc075c43b64736f6c63430005100032",
  "source": "pragma solidity ^0.5.16;\n\nimport \"./StockStorage.sol\";\n\ncontract StockInterface  {\n    StockStorage stockStorage;\n    address stockStorageAddress = 0x4CDB93400db58593Aa348341A6220Cd083858676;\n    event Transfer(address indexed _from, address indexed _to, uint _value);\n    event Approval(address indexed _owner, address indexed _spender, uint _value);\n\n    constructor() public{\n        stockStorage = StockStorage(stockStorageAddress);\n    }\n\n    function getName() public view returns (bytes32) {\n        return stockStorage.getName();\n    }\n\n    function getDecimals() public view returns (uint8) {\n        return stockStorage.getDecimals();\n    }\n\n    function getStock(address _address) public view returns (bytes32,bytes32) {\n        return stockStorage.getStock(_address);\n    }\n\n    function setStock(address _addr,bytes32 _name,bytes32 _telno) public returns (bool){\n        return stockStorage.setStock(_addr,_name,_telno);\n    }\n\n    function getStore(address _address) public view returns (bytes32,uint32) {\n        return stockStorage.getStore(_address);\n    }\n\n    function setStore(address _addr,bytes32 _name,uint32 _amount) public returns (bool){\n        return stockStorage.setStore(_addr,_name,_amount);\n    }\n\n}\n",
  "sourcePath": "/Users/fieldlee/Downloads/Cita/SolidtyToJson/contracts/StockInterface.sol",
  "compiler": {
    "name": "solc",
    "version": "0.5.16+commit.9c3226ce.Emscripten.clang"
  },
  "schemaVersion": "3.1.0",
  "updatedAt": "2020-05-20T02:13:38.993Z",
  "devdoc": {
    "methods": {}
  },
  "userdoc": {
    "methods": {}
  }
}