{
  "contractName": "StockStorage",
  "abi": [
    {
      "inputs": [],
      "payable": false,
      "stateMutability": "nonpayable",
      "type": "constructor"
    },
    {
      "constant": false,
      "inputs": [
        {
          "internalType": "address",
          "name": "_address",
          "type": "address"
        }
      ],
      "name": "allowAccess",
      "outputs": [],
      "payable": false,
      "stateMutability": "nonpayable",
      "type": "function"
    },
    {
      "constant": false,
      "inputs": [
        {
          "internalType": "address",
          "name": "_address",
          "type": "address"
        }
      ],
      "name": "denyAccess",
      "outputs": [],
      "payable": false,
      "stateMutability": "nonpayable",
      "type": "function"
    },
    {
      "constant": true,
      "inputs": [],
      "name": "getName",
      "outputs": [
        {
          "internalType": "bytes32",
          "name": "",
          "type": "bytes32"
        }
      ],
      "payable": false,
      "stateMutability": "view",
      "type": "function"
    },
    {
      "constant": true,
      "inputs": [],
      "name": "getDecimals",
      "outputs": [
        {
          "internalType": "uint8",
          "name": "",
          "type": "uint8"
        }
      ],
      "payable": false,
      "stateMutability": "view",
      "type": "function"
    },
    {
      "constant": true,
      "inputs": [
        {
          "internalType": "address",
          "name": "_address",
          "type": "address"
        }
      ],
      "name": "getStock",
      "outputs": [
        {
          "internalType": "bytes32",
          "name": "",
          "type": "bytes32"
        },
        {
          "internalType": "bytes32",
          "name": "",
          "type": "bytes32"
        }
      ],
      "payable": false,
      "stateMutability": "view",
      "type": "function"
    },
    {
      "constant": false,
      "inputs": [
        {
          "internalType": "address",
          "name": "_addr",
          "type": "address"
        },
        {
          "internalType": "bytes32",
          "name": "_stockaddr",
          "type": "bytes32"
        },
        {
          "internalType": "bytes32",
          "name": "_telno",
          "type": "bytes32"
        }
      ],
      "name": "setStock",
      "outputs": [
        {
          "internalType": "bool",
          "name": "",
          "type": "bool"
        }
      ],
      "payable": false,
      "stateMutability": "nonpayable",
      "type": "function"
    },
    {
      "constant": true,
      "inputs": [
        {
          "internalType": "address",
          "name": "_address",
          "type": "address"
        }
      ],
      "name": "getStore",
      "outputs": [
        {
          "internalType": "bytes32",
          "name": "",
          "type": "bytes32"
        },
        {
          "internalType": "uint32",
          "name": "",
          "type": "uint32"
        }
      ],
      "payable": false,
      "stateMutability": "view",
      "type": "function"
    },
    {
      "constant": false,
      "inputs": [
        {
          "internalType": "address",
          "name": "_addr",
          "type": "address"
        },
        {
          "internalType": "bytes32",
          "name": "_storename",
          "type": "bytes32"
        },
        {
          "internalType": "uint32",
          "name": "_amount",
          "type": "uint32"
        }
      ],
      "name": "setStore",
      "outputs": [
        {
          "internalType": "bool",
          "name": "",
          "type": "bool"
        }
      ],
      "payable": false,
      "stateMutability": "nonpayable",
      "type": "function"
    }
  ],
  "bytecode": "0x60806040526040518060400160405280601281526020017f696e53746f7265496e666f726d6174696f6e00000000000000000000000000008152506000908051906020019061004f9291906100d6565b506008600160006101000a81548160ff021916908360ff16021790555034801561007857600080fd5b506001600460003373ffffffffffffffffffffffffffffffffffffffff1673ffffffffffffffffffffffffffffffffffffffff16815260200190815260200160002060006101000a81548160ff02191690831515021790555061017b565b828054600181600116156101000203166002900490600052602060002090601f016020900481019282601f1061011757805160ff1916838001178555610145565b82800160010185558215610145579182015b82811115610144578251825591602001919060010190610129565b5b5090506101529190610156565b5090565b61017891905b8082111561017457600081600090555060010161015c565b5090565b90565b6108db8061018a6000396000f3fe608060405234801561001057600080fd5b50600436106100885760003560e01c806385cbb9541161005b57806385cbb954146101ca578063c4a85bc114610240578063c5eaabfb14610284578063f0141d84146102e357610088565b806317d7de7c1461008d5780634b4ffccd146100ab57806361afd5ac14610116578063710469091461015a575b600080fd5b610095610307565b6040518082815260200191505060405180910390f35b6100ed600480360360208110156100c157600080fd5b81019080803573ffffffffffffffffffffffffffffffffffffffff1690602001909291905050506103b1565b604051808381526020018263ffffffff1663ffffffff1681526020019250505060405180910390f35b6101586004803603602081101561012c57600080fd5b81019080803573ffffffffffffffffffffffffffffffffffffffff169060200190929190505050610453565b005b6101b06004803603606081101561017057600080fd5b81019080803573ffffffffffffffffffffffffffffffffffffffff1690602001909291908035906020019092919080359060200190929190505050610557565b604051808215151515815260200191505060405180910390f35b610226600480360360608110156101e057600080fd5b81019080803573ffffffffffffffffffffffffffffffffffffffff16906020019092919080359060200190929190803563ffffffff1690602001909291905050506105d8565b604051808215151515815260200191505060405180910390f35b6102826004803603602081101561025657600080fd5b81019080803573ffffffffffffffffffffffffffffffffffffffff169060200190929190505050610684565b005b6102c66004803603602081101561029a57600080fd5b81019080803573ffffffffffffffffffffffffffffffffffffffff169060200190929190505050610788565b604051808381526020018281526020019250505060405180910390f35b6102eb61081a565b604051808260ff1660ff16815260200191505060405180910390f35b60006103ac60008054600181600116156101000203166002900480601f0160208091040260200160405190810160405280929190818152602001828054600181600116156101000203166002900480156103a25780601f10610377576101008083540402835291602001916103a2565b820191906000526020600020905b81548152906001019060200180831161038557829003601f168201915b5050505050610831565b905090565b600080600260008473ffffffffffffffffffffffffffffffffffffffff1673ffffffffffffffffffffffffffffffffffffffff16815260200190815260200160002060000154600260008573ffffffffffffffffffffffffffffffffffffffff1673ffffffffffffffffffffffffffffffffffffffff16815260200190815260200160002060010160009054906101000a900463ffffffff1691509150915091565b60011515600460003373ffffffffffffffffffffffffffffffffffffffff1673ffffffffffffffffffffffffffffffffffffffff16815260200190815260200160002060009054906101000a900460ff161515146104fc576040517f08c379a00000000000000000000000000000000000000000000000000000000081526004018080602001828103825260248152602001806108836024913960400191505060405180910390fd5b6000600460008373ffffffffffffffffffffffffffffffffffffffff1673ffffffffffffffffffffffffffffffffffffffff16815260200190815260200160002060006101000a81548160ff02191690831515021790555050565b600061056161083f565b838160000181815250508281602001818152505080600360008773ffffffffffffffffffffffffffffffffffffffff1673ffffffffffffffffffffffffffffffffffffffff168152602001908152602001600020600082015181600001556020820151816001015590505060019150509392505050565b60006105e261085f565b8381600001818152505082816020019063ffffffff16908163ffffffff168152505080600260008773ffffffffffffffffffffffffffffffffffffffff1673ffffffffffffffffffffffffffffffffffffffff1681526020019081526020016000206000820151816000015560208201518160010160006101000a81548163ffffffff021916908363ffffffff16021790555090505060019150509392505050565b60011515600460003373ffffffffffffffffffffffffffffffffffffffff1673ffffffffffffffffffffffffffffffffffffffff16815260200190815260200160002060009054906101000a900460ff1615151461072d576040517f08c379a00000000000000000000000000000000000000000000000000000000081526004018080602001828103825260248152602001806108836024913960400191505060405180910390fd5b6001600460008373ffffffffffffffffffffffffffffffffffffffff1673ffffffffffffffffffffffffffffffffffffffff16815260200190815260200160002060006101000a81548160ff02191690831515021790555050565b600080600360008473ffffffffffffffffffffffffffffffffffffffff1673ffffffffffffffffffffffffffffffffffffffff16815260200190815260200160002060000154600360008573ffffffffffffffffffffffffffffffffffffffff1673ffffffffffffffffffffffffffffffffffffffff1681526020019081526020016000206001015491509150915091565b6000600160009054906101000a900460ff16905090565b600060208201519050919050565b604051806040016040528060008019168152602001600080191681525090565b604051806040016040528060008019168152602001600063ffffffff168152509056fe7468652061646472657373206e6f7420616c6c6f776564207468652073746f7261676521a265627a7a7231582038ebdb4579e68439037f1669613e948e7d95d77f797ab3f34f05827e3136923164736f6c63430005100032",
  "source": "pragma solidity ^0.5.16;\n\ncontract StockStorage {\n    string private _name = \"inStoreInformation\"; \n    uint8 private _decimals = 8;\n\n    struct StoreInfo {\n      bytes32 name;\n      uint32 amount;\n    }\n\n    struct StockInfo {\n        bytes32 addr;\n        bytes32 telno;\n    }\n\n    mapping (address => StoreInfo) private _stores;\n    mapping (address => StockInfo) private _stocks;\n    // allownce access\n    mapping(address => bool) private accessAllowed;\n    \n    constructor()public{\n        accessAllowed[msg.sender] = true;\n    }\n\n    modifier isPlatform() {\n        require(accessAllowed[msg.sender] == true,\"the address not allowed the storage!\");\n        _;\n    }\n\n    function allowAccess(address _address) isPlatform public {\n        accessAllowed[_address] = true;\n    }\n    \n    function denyAccess(address _address) isPlatform public {\n        accessAllowed[_address] = false;\n    }\n\n\n    function stringToBytes32(string memory source)private pure returns (bytes32 result) {\n        assembly {\n            result := mload(add(source, 32))\n        }\n    }\n\n    function getName() public view returns (bytes32) {\n        return stringToBytes32(_name);\n    }\n\n    function getDecimals() public view returns (uint8) {\n        return _decimals;\n    }\n\n    function getStock(address _address) public view returns (bytes32,bytes32) {\n        return (_stocks[_address].addr,_stocks[_address].telno);\n    }\n\n    function setStock(address _addr,bytes32 _stockaddr,bytes32 _telno) public returns (bool){\n        StockInfo memory stockInfo;\n        stockInfo.addr = _stockaddr;\n        stockInfo.telno = _telno;\n        _stocks[_addr] = stockInfo;\n        return true;\n    }\n\n    function getStore(address _address) public view returns (bytes32,uint32) {\n        return (_stores[_address].name,_stores[_address].amount);\n    }\n\n    function setStore(address _addr,bytes32 _storename,uint32 _amount) public returns (bool){\n        StoreInfo memory storeInfo;\n        storeInfo.name = _storename;\n        storeInfo.amount = _amount;\n        _stores[_addr] = storeInfo;\n        return true;\n    }\n}",
  "sourcePath": "/Users/fieldlee/Downloads/Cita/SolidtyToJson/contracts/StockStorage.sol",
  "compiler": {
    "name": "solc",
    "version": "0.5.16+commit.9c3226ce.Emscripten.clang"
  },
  "schemaVersion": "3.1.0",
  "updatedAt": "2020-05-20T01:55:41.090Z",
  "devdoc": {
    "methods": {}
  },
  "userdoc": {
    "methods": {}
  }
}