{
  "contractName": "StorageByte",
  "abi": [
    {
      "inputs": [],
      "payable": false,
      "stateMutability": "nonpayable",
      "type": "constructor"
    },
    {
      "constant": false,
      "inputs": [
        {
          "internalType": "address",
          "name": "_address",
          "type": "address"
        }
      ],
      "name": "allowAccess",
      "outputs": [],
      "payable": false,
      "stateMutability": "nonpayable",
      "type": "function"
    },
    {
      "constant": false,
      "inputs": [
        {
          "internalType": "address",
          "name": "_address",
          "type": "address"
        }
      ],
      "name": "denyAccess",
      "outputs": [],
      "payable": false,
      "stateMutability": "nonpayable",
      "type": "function"
    },
    {
      "constant": false,
      "inputs": [
        {
          "internalType": "bytes",
          "name": "_id",
          "type": "bytes"
        }
      ],
      "name": "setList",
      "outputs": [],
      "payable": false,
      "stateMutability": "nonpayable",
      "type": "function"
    },
    {
      "constant": false,
      "inputs": [
        {
          "internalType": "bytes",
          "name": "_id",
          "type": "bytes"
        },
        {
          "internalType": "bytes",
          "name": "_v",
          "type": "bytes"
        }
      ],
      "name": "setLists",
      "outputs": [],
      "payable": false,
      "stateMutability": "nonpayable",
      "type": "function"
    },
    {
      "constant": true,
      "inputs": [],
      "name": "getList",
      "outputs": [
        {
          "internalType": "bytes[]",
          "name": "",
          "type": "bytes[]"
        }
      ],
      "payable": false,
      "stateMutability": "view",
      "type": "function"
    },
    {
      "constant": false,
      "inputs": [
        {
          "internalType": "bytes",
          "name": "_id",
          "type": "bytes"
        },
        {
          "internalType": "bytes",
          "name": "_stage",
          "type": "bytes"
        },
        {
          "internalType": "bytes",
          "name": "_value",
          "type": "bytes"
        }
      ],
      "name": "setStorage",
      "outputs": [],
      "payable": false,
      "stateMutability": "nonpayable",
      "type": "function"
    },
    {
      "constant": false,
      "inputs": [
        {
          "internalType": "bytes",
          "name": "_id",
          "type": "bytes"
        },
        {
          "internalType": "bytes",
          "name": "_stage",
          "type": "bytes"
        },
        {
          "internalType": "bytes[]",
          "name": "_values",
          "type": "bytes[]"
        }
      ],
      "name": "setArrayStorage",
      "outputs": [],
      "payable": false,
      "stateMutability": "nonpayable",
      "type": "function"
    },
    {
      "constant": false,
      "inputs": [
        {
          "internalType": "bytes",
          "name": "_id",
          "type": "bytes"
        },
        {
          "internalType": "bytes",
          "name": "_stage",
          "type": "bytes"
        },
        {
          "internalType": "bytes",
          "name": "_value",
          "type": "bytes"
        }
      ],
      "name": "addArrayStorage",
      "outputs": [],
      "payable": false,
      "stateMutability": "nonpayable",
      "type": "function"
    },
    {
      "constant": false,
      "inputs": [
        {
          "internalType": "bytes",
          "name": "_id",
          "type": "bytes"
        },
        {
          "internalType": "bytes",
          "name": "_stage",
          "type": "bytes"
        },
        {
          "internalType": "bytes[]",
          "name": "_keys",
          "type": "bytes[]"
        },
        {
          "internalType": "bytes[]",
          "name": "_values",
          "type": "bytes[]"
        }
      ],
      "name": "setMapStorage",
      "outputs": [],
      "payable": false,
      "stateMutability": "nonpayable",
      "type": "function"
    },
    {
      "constant": true,
      "inputs": [
        {
          "internalType": "bytes",
          "name": "_id",
          "type": "bytes"
        },
        {
          "internalType": "bytes",
          "name": "_stage",
          "type": "bytes"
        }
      ],
      "name": "getStorage",
      "outputs": [
        {
          "internalType": "address",
          "name": "",
          "type": "address"
        },
        {
          "internalType": "bytes",
          "name": "",
          "type": "bytes"
        },
        {
          "internalType": "bytes",
          "name": "",
          "type": "bytes"
        },
        {
          "internalType": "bytes",
          "name": "",
          "type": "bytes"
        }
      ],
      "payable": false,
      "stateMutability": "view",
      "type": "function"
    },
    {
      "constant": true,
      "inputs": [
        {
          "internalType": "bytes",
          "name": "_id",
          "type": "bytes"
        },
        {
          "internalType": "bytes",
          "name": "_stage",
          "type": "bytes"
        }
      ],
      "name": "getMapStorage",
      "outputs": [
        {
          "internalType": "address",
          "name": "",
          "type": "address"
        },
        {
          "internalType": "bytes",
          "name": "",
          "type": "bytes"
        },
        {
          "internalType": "bytes",
          "name": "",
          "type": "bytes"
        },
        {
          "internalType": "bytes[]",
          "name": "",
          "type": "bytes[]"
        },
        {
          "internalType": "bytes[]",
          "name": "",
          "type": "bytes[]"
        }
      ],
      "payable": false,
      "stateMutability": "view",
      "type": "function"
    }
  ],
  "bytecode": "0x608060405234801561001057600080fd5b506001600260003373ffffffffffffffffffffffffffffffffffffffff1673ffffffffffffffffffffffffffffffffffffffff16815260200190815260200160002060006101000a81548160ff021916908315150217905550611982806100786000396000f3fe608060405234801561001057600080fd5b50600436106100a95760003560e01c8063942b765a11610071578063942b765a14610169578063aad22a7014610187578063c498da24146101a3578063c4a85bc1146101bf578063e4beeefe146101db578063e8fd4ac9146101f7576100a9565b806361afd5ac146100ae5780636afee492146100ca57806381ba85f9146100fe5780638416fbe6146101315780638a6a288f1461014d575b600080fd5b6100c860048036036100c39190810190611276565b610213565b005b6100e460048036036100df91908101906112e0565b61026e565b6040516100f595949392919061168f565b60405180910390f35b610118600480360361011391908101906112e0565b6105bb565b60405161012894939291906116fe565b60405180910390f35b61014b600480360361014691908101906113e3565b6108fc565b005b6101676004803603610162919081019061129f565b610a31565b005b610171610a73565b60405161017e9190611758565b60405180910390f35b6101a1600480360361019c91908101906114a6565b610b5c565b005b6101bd60048036036101b891908101906114a6565b610c87565b005b6101d960048036036101d49190810190611276565b610d06565b005b6101f560048036036101f0919081019061134c565b610d61565b005b610211600480360361020c91908101906112e0565b610e8c565b005b6000600260008373ffffffffffffffffffffffffffffffffffffffff1673ffffffffffffffffffffffffffffffffffffffff16815260200190815260200160002060006101000a81548160ff02191690831515021790555050565b600060608060608061027e610f0e565b60018860405161028e9190611678565b9081526020016040518091039020876040516102aa9190611678565b90815260200160405180910390206040518060800160405290816000820160009054906101000a900473ffffffffffffffffffffffffffffffffffffffff1673ffffffffffffffffffffffffffffffffffffffff1673ffffffffffffffffffffffffffffffffffffffff168152602001600182018054600181600116156101000203166002900480601f0160208091040260200160405190810160405280929190818152602001828054600181600116156101000203166002900480156103b25780601f10610387576101008083540402835291602001916103b2565b820191906000526020600020905b81548152906001019060200180831161039557829003601f168201915b5050505050815260200160028201805480602002602001604051908101604052809291908181526020016000905b8282101561049c578382906000526020600020018054600181600116156101000203166002900480601f0160208091040260200160405190810160405280929190818152602001828054600181600116156101000203166002900480156104885780601f1061045d57610100808354040283529160200191610488565b820191906000526020600020905b81548152906001019060200180831161046b57829003601f168201915b5050505050815260200190600101906103e0565b50505050815260200160038201805480602002602001604051908101604052809291908181526020016000905b82821015610585578382906000526020600020018054600181600116156101000203166002900480601f0160208091040260200160405190810160405280929190818152602001828054600181600116156101000203166002900480156105715780601f1061054657610100808354040283529160200191610571565b820191906000526020600020905b81548152906001019060200180831161055457829003601f168201915b5050505050815260200190600101906104c9565b50505050815250509050806000015188888360400151846060015181915080905095509550955095509550509295509295909350565b600060608060606105ca610f0e565b6001876040516105da9190611678565b9081526020016040518091039020866040516105f69190611678565b90815260200160405180910390206040518060800160405290816000820160009054906101000a900473ffffffffffffffffffffffffffffffffffffffff1673ffffffffffffffffffffffffffffffffffffffff1673ffffffffffffffffffffffffffffffffffffffff168152602001600182018054600181600116156101000203166002900480601f0160208091040260200160405190810160405280929190818152602001828054600181600116156101000203166002900480156106fe5780601f106106d3576101008083540402835291602001916106fe565b820191906000526020600020905b8154815290600101906020018083116106e157829003601f168201915b5050505050815260200160028201805480602002602001604051908101604052809291908181526020016000905b828210156107e8578382906000526020600020018054600181600116156101000203166002900480601f0160208091040260200160405190810160405280929190818152602001828054600181600116156101000203166002900480156107d45780601f106107a9576101008083540402835291602001916107d4565b820191906000526020600020905b8154815290600101906020018083116107b757829003601f168201915b50505050508152602001906001019061072c565b50505050815260200160038201805480602002602001604051908101604052809291908181526020016000905b828210156108d1578382906000526020600020018054600181600116156101000203166002900480601f0160208091040260200160405190810160405280929190818152602001828054600181600116156101000203166002900480156108bd5780601f10610892576101008083540402835291602001916108bd565b820191906000526020600020905b8154815290600101906020018083116108a057829003601f168201915b505050505081526020019060010190610815565b5050505081525050905080600001518787836020015180905094509450945094505092959194509250565b610904610f0e565b32816000019073ffffffffffffffffffffffffffffffffffffffff16908173ffffffffffffffffffffffffffffffffffffffff16815250508281604001819052508181606001819052508060018660405161095f9190611678565b90815260200160405180910390208560405161097b9190611678565b908152602001604051809103902060008201518160000160006101000a81548173ffffffffffffffffffffffffffffffffffffffff021916908373ffffffffffffffffffffffffffffffffffffffff16021790555060208201518160010190805190602001906109ec929190610f4c565b506040820151816002019080519060200190610a09929190610fcc565b506060820151816003019080519060200190610a26929190610fcc565b509050505050505050565b6000819080600181540180825580915050906001820390600052602060002001600090919290919091509080519060200190610a6e92919061102c565b505050565b60606000805480602002602001604051908101604052809291908181526020016000905b82821015610b53578382906000526020600020018054600181600116156101000203166002900480601f016020809104026020016040519081016040528092919081815260200182805460018160011615610100020316600290048015610b3f5780601f10610b1457610100808354040283529160200191610b3f565b820191906000526020600020905b815481529060010190602001808311610b2257829003601f168201915b505050505081526020019060010190610a97565b50505050905090565b610b64610f0e565b32816000019073ffffffffffffffffffffffffffffffffffffffff16908173ffffffffffffffffffffffffffffffffffffffff168152505081816020018190525080600185604051610bb69190611678565b908152602001604051809103902084604051610bd29190611678565b908152602001604051809103902060008201518160000160006101000a81548173ffffffffffffffffffffffffffffffffffffffff021916908373ffffffffffffffffffffffffffffffffffffffff1602179055506020820151816001019080519060200190610c43929190610f4c565b506040820151816002019080519060200190610c60929190610fcc565b506060820151816003019080519060200190610c7d929190610fcc565b5090505050505050565b600183604051610c979190611678565b908152602001604051809103902082604051610cb39190611678565b9081526020016040518091039020600301819080600181540180825580915050906001820390600052602060002001600090919290919091509080519060200190610cff92919061102c565b5050505050565b6001600260008373ffffffffffffffffffffffffffffffffffffffff1673ffffffffffffffffffffffffffffffffffffffff16815260200190815260200160002060006101000a81548160ff02191690831515021790555050565b610d69610f0e565b32816000019073ffffffffffffffffffffffffffffffffffffffff16908173ffffffffffffffffffffffffffffffffffffffff168152505081816060018190525080600185604051610dbb9190611678565b908152602001604051809103902084604051610dd79190611678565b908152602001604051809103902060008201518160000160006101000a81548173ffffffffffffffffffffffffffffffffffffffff021916908373ffffffffffffffffffffffffffffffffffffffff1602179055506020820151816001019080519060200190610e48929190610f4c565b506040820151816002019080519060200190610e65929190610fcc565b506060820151816003019080519060200190610e82929190610fcc565b5090505050505050565b6000829080600181540180825580915050906001820390600052602060002001600090919290919091509080519060200190610ec992919061102c565b50506000819080600181540180825580915050906001820390600052602060002001600090919290919091509080519060200190610f0892919061102c565b50505050565b6040518060800160405280600073ffffffffffffffffffffffffffffffffffffffff1681526020016060815260200160608152602001606081525090565b828054600181600116156101000203166002900490600052602060002090601f016020900481019282601f10610f8d57805160ff1916838001178555610fbb565b82800160010185558215610fbb579182015b82811115610fba578251825591602001919060010190610f9f565b5b509050610fc891906110ac565b5090565b82805482825590600052602060002090810192821561101b579160200282015b8281111561101a57825182908051906020019061100a929190610f4c565b5091602001919060010190610fec565b5b50905061102891906110d1565b5090565b828054600181600116156101000203166002900490600052602060002090601f016020900481019282601f1061106d57805160ff191683800117855561109b565b8280016001018555821561109b579182015b8281111561109a57825182559160200191906001019061107f565b5b5090506110a891906110ac565b5090565b6110ce91905b808211156110ca5760008160009055506001016110b2565b5090565b90565b6110fa91905b808211156110f657600081816110ed91906110fd565b506001016110d7565b5090565b90565b50805460018160011615610100020316600290046000825580601f106111235750611142565b601f01602090049060005260206000209081019061114191906110ac565b5b50565b60008135905061115481611928565b92915050565b600082601f83011261116b57600080fd5b813561117e611179826117a7565b61177a565b9150818183526020840193506020810190508360005b838110156111c457813586016111aa88826111ce565b845260208401935060208301925050600181019050611194565b5050505092915050565b600082601f8301126111df57600080fd5b81356111f26111ed826117cf565b61177a565b9150808252602083016020830185838301111561120e57600080fd5b6112198382846118d5565b50505092915050565b600082601f83011261123357600080fd5b8135611246611241826117fb565b61177a565b9150808252602083016020830185838301111561126257600080fd5b61126d8382846118d5565b50505092915050565b60006020828403121561128857600080fd5b600061129684828501611145565b91505092915050565b6000602082840312156112b157600080fd5b600082013567ffffffffffffffff8111156112cb57600080fd5b6112d784828501611222565b91505092915050565b600080604083850312156112f357600080fd5b600083013567ffffffffffffffff81111561130d57600080fd5b61131985828601611222565b925050602083013567ffffffffffffffff81111561133657600080fd5b61134285828601611222565b9150509250929050565b60008060006060848603121561136157600080fd5b600084013567ffffffffffffffff81111561137b57600080fd5b61138786828701611222565b935050602084013567ffffffffffffffff8111156113a457600080fd5b6113b086828701611222565b925050604084013567ffffffffffffffff8111156113cd57600080fd5b6113d98682870161115a565b9150509250925092565b600080600080608085870312156113f957600080fd5b600085013567ffffffffffffffff81111561141357600080fd5b61141f87828801611222565b945050602085013567ffffffffffffffff81111561143c57600080fd5b61144887828801611222565b935050604085013567ffffffffffffffff81111561146557600080fd5b6114718782880161115a565b925050606085013567ffffffffffffffff81111561148e57600080fd5b61149a8782880161115a565b91505092959194509250565b6000806000606084860312156114bb57600080fd5b600084013567ffffffffffffffff8111156114d557600080fd5b6114e186828701611222565b935050602084013567ffffffffffffffff8111156114fe57600080fd5b61150a86828701611222565b925050604084013567ffffffffffffffff81111561152757600080fd5b61153386828701611222565b9150509250925092565b6000611549838361163f565b905092915050565b61155a816118a3565b82525050565b600061156b82611837565b6115758185611865565b93508360208202850161158785611827565b8060005b858110156115c357848403895281516115a4858261153d565b94506115af83611858565b925060208a0199505060018101905061158b565b50829750879550505050505092915050565b60006115e08261184d565b6115ea8185611887565b93506115fa8185602086016118e4565b61160381611917565b840191505092915050565b60006116198261184d565b6116238185611898565b93506116338185602086016118e4565b80840191505092915050565b600061164a82611842565b6116548185611876565b93506116648185602086016118e4565b61166d81611917565b840191505092915050565b6000611684828461160e565b915081905092915050565b600060a0820190506116a46000830188611551565b81810360208301526116b681876115d5565b905081810360408301526116ca81866115d5565b905081810360608301526116de8185611560565b905081810360808301526116f28184611560565b90509695505050505050565b60006080820190506117136000830187611551565b818103602083015261172581866115d5565b9050818103604083015261173981856115d5565b9050818103606083015261174d81846115d5565b905095945050505050565b600060208201905081810360008301526117728184611560565b905092915050565b6000604051905081810181811067ffffffffffffffff8211171561179d57600080fd5b8060405250919050565b600067ffffffffffffffff8211156117be57600080fd5b602082029050602081019050919050565b600067ffffffffffffffff8211156117e657600080fd5b601f19601f8301169050602081019050919050565b600067ffffffffffffffff82111561181257600080fd5b601f19601f8301169050602081019050919050565b6000819050602082019050919050565b600081519050919050565b600081519050919050565b600081519050919050565b6000602082019050919050565b600082825260208201905092915050565b600082825260208201905092915050565b600082825260208201905092915050565b600081905092915050565b60006118ae826118b5565b9050919050565b600073ffffffffffffffffffffffffffffffffffffffff82169050919050565b82818337600083830152505050565b60005b838110156119025780820151818401526020810190506118e7565b83811115611911576000848401525b50505050565b6000601f19601f8301169050919050565b611931816118a3565b811461193c57600080fd5b5056fea365627a7a723158205987895cd71fb01a23311c90f38d93f38b21311366a123922821fb77743725ae6c6578706572696d656e74616cf564736f6c63430005100040",
  "source": "pragma solidity ^0.5.16;\npragma experimental ABIEncoderV2;\n\ncontract StorageByte {\n    \n    struct Storage {\n      address from;\n      bytes value;\n      bytes[] arraykeys;\n      bytes[] arrayvalue;\n    }\n    //\n    bytes[] private _pendingLists;\n    // id => stage => storage\n    mapping(bytes => mapping(bytes => Storage)) private _storage;\n    // allow access contract address\n    mapping(address => bool) private _accessAllowed;\n    // set deploy address to allow access\n    constructor()public{\n        _accessAllowed[msg.sender] = true;\n    }\n\n    modifier isPlatform()  {\n        require(_accessAllowed[msg.sender] == true,\"the address not allowed the storage!\");\n        _;\n    }\n\n    function allowAccess(address _address) public   {\n        _accessAllowed[_address] = true;\n    }\n    \n    function denyAccess(address _address) public   {\n        _accessAllowed[_address] = false;\n    }\n\n    function setList(bytes memory _id)public {\n        _pendingLists.push(_id);\n    }\n\n    function setLists(bytes memory _id,bytes memory _v)public {\n        _pendingLists.push(_id);\n        _pendingLists.push(_v);\n    }\n\n    function getList() public view returns(bytes[] memory ){\n        return _pendingLists;\n    }\n\n   function setStorage(bytes memory _id,bytes memory _stage,bytes memory _value)public {\n       Storage memory store_info;\n       store_info.from = tx.origin;\n    //    store_info.stype = _type;\n       store_info.value = _value;\n       _storage[_id][_stage] = store_info;\n   }\n\n   function setArrayStorage(bytes memory _id,bytes memory _stage,bytes[] memory _values)public {\n       Storage memory store_info;\n       store_info.from = tx.origin;\n    //    store_info.stype = _type;\n       store_info.arrayvalue = _values;\n       _storage[_id][_stage] = store_info;\n   }\n\n   function addArrayStorage(bytes memory _id,bytes memory _stage,bytes memory _value)public {\n       _storage[_id][_stage].arrayvalue.push(_value);\n   }\n\n   function setMapStorage(bytes memory _id,bytes memory _stage,bytes[] memory _keys,bytes[] memory _values)public {\n       Storage memory store_info;\n       store_info.from = tx.origin;\n    //    store_info.stype = _type;\n       store_info.arraykeys = _keys;\n       store_info.arrayvalue = _values;\n       _storage[_id][_stage] = store_info;\n   }\n\n   function getStorage(bytes memory _id,bytes memory _stage) public view   returns(address,bytes memory ,bytes memory ,bytes memory ){\n       Storage memory store_info = _storage[_id][_stage];\n       return (store_info.from,_id,_stage,store_info.value);\n   }\n\n   function getMapStorage(bytes memory _id,bytes memory _stage) public view   returns(address,bytes memory,bytes memory,bytes[] memory ,bytes[] memory ){\n       Storage memory store_info = _storage[_id][_stage];\n       return (store_info.from,_id,_stage,store_info.arraykeys,store_info.arrayvalue);\n   }\n}\n",
  "sourcePath": "/Users/fieldlee/Downloads/Cita/SolidtyToJson/contracts/StorageByte.sol",
  "compiler": {
    "name": "solc",
    "version": "0.5.16+commit.9c3226ce.Emscripten.clang"
  },
  "schemaVersion": "3.1.0",
  "updatedAt": "2020-05-27T07:13:36.163Z",
  "devdoc": {
    "methods": {}
  },
  "userdoc": {
    "methods": {}
  }
}