{
  "contractName": "TokenStorage",
  "abi": [
    {
      "inputs": [],
      "payable": false,
      "stateMutability": "nonpayable",
      "type": "constructor"
    },
    {
      "constant": false,
      "inputs": [
        {
          "internalType": "address",
          "name": "_address",
          "type": "address"
        }
      ],
      "name": "allowAccess",
      "outputs": [],
      "payable": false,
      "stateMutability": "nonpayable",
      "type": "function"
    },
    {
      "constant": false,
      "inputs": [
        {
          "internalType": "address",
          "name": "_address",
          "type": "address"
        }
      ],
      "name": "denyAccess",
      "outputs": [],
      "payable": false,
      "stateMutability": "nonpayable",
      "type": "function"
    },
    {
      "constant": true,
      "inputs": [],
      "name": "getTotalSupply",
      "outputs": [
        {
          "internalType": "uint256",
          "name": "",
          "type": "uint256"
        }
      ],
      "payable": false,
      "stateMutability": "view",
      "type": "function"
    },
    {
      "constant": true,
      "inputs": [
        {
          "internalType": "address",
          "name": "_addr",
          "type": "address"
        }
      ],
      "name": "getBalanceOf",
      "outputs": [
        {
          "internalType": "uint256",
          "name": "",
          "type": "uint256"
        }
      ],
      "payable": false,
      "stateMutability": "view",
      "type": "function"
    },
    {
      "constant": false,
      "inputs": [
        {
          "internalType": "address",
          "name": "_addr",
          "type": "address"
        },
        {
          "internalType": "uint256",
          "name": "_value",
          "type": "uint256"
        }
      ],
      "name": "setBalanceOf",
      "outputs": [],
      "payable": false,
      "stateMutability": "nonpayable",
      "type": "function"
    }
  ],
  "bytecode": "0x608060405260008060006101000a81548160ff0219169083151502179055506040518060400160405280600381526020017f4c44500000000000000000000000000000000000000000000000000000000000815250600190805190602001906100699291906101cc565b506040518060400160405280600881526020017f6c6470546f6b656e000000000000000000000000000000000000000000000000815250600290805190602001906100b59291906101cc565b506008600360006101000a81548160ff021916908360ff160217905550620f4240600360016101000a81548167ffffffffffffffff021916908367ffffffffffffffff16021790555034801561010a57600080fd5b506001600660003373ffffffffffffffffffffffffffffffffffffffff1673ffffffffffffffffffffffffffffffffffffffff16815260200190815260200160002060006101000a81548160ff021916908315150217905550600360019054906101000a900467ffffffffffffffff1667ffffffffffffffff16600460003273ffffffffffffffffffffffffffffffffffffffff1673ffffffffffffffffffffffffffffffffffffffff16815260200190815260200160002081905550610271565b828054600181600116156101000203166002900490600052602060002090601f016020900481019282601f1061020d57805160ff191683800117855561023b565b8280016001018555821561023b579182015b8281111561023a57825182559160200191906001019061021f565b5b509050610248919061024c565b5090565b61026e91905b8082111561026a576000816000905550600101610252565b5090565b90565b61056b806102806000396000f3fe608060405234801561001057600080fd5b50600436106100575760003560e01c806361afd5ac1461005c5780639b96eece146100a0578063b46310f6146100f8578063c4a85bc114610146578063c4e41b221461018a575b600080fd5b61009e6004803603602081101561007257600080fd5b81019080803573ffffffffffffffffffffffffffffffffffffffff1690602001909291905050506101a8565b005b6100e2600480360360208110156100b657600080fd5b81019080803573ffffffffffffffffffffffffffffffffffffffff1690602001909291905050506102ac565b6040518082815260200191505060405180910390f35b6101446004803603604081101561010e57600080fd5b81019080803573ffffffffffffffffffffffffffffffffffffffff169060200190929190803590602001909291905050506102f5565b005b6101886004803603602081101561015c57600080fd5b81019080803573ffffffffffffffffffffffffffffffffffffffff1690602001909291905050506103e6565b005b6101926104ea565b6040518082815260200191505060405180910390f35b60011515600660003373ffffffffffffffffffffffffffffffffffffffff1673ffffffffffffffffffffffffffffffffffffffff16815260200190815260200160002060009054906101000a900460ff16151514610251576040517f08c379a00000000000000000000000000000000000000000000000000000000081526004018080602001828103825260248152602001806105136024913960400191505060405180910390fd5b6000600660008373ffffffffffffffffffffffffffffffffffffffff1673ffffffffffffffffffffffffffffffffffffffff16815260200190815260200160002060006101000a81548160ff02191690831515021790555050565b6000600460008373ffffffffffffffffffffffffffffffffffffffff1673ffffffffffffffffffffffffffffffffffffffff168152602001908152602001600020549050919050565b60011515600660003373ffffffffffffffffffffffffffffffffffffffff1673ffffffffffffffffffffffffffffffffffffffff16815260200190815260200160002060009054906101000a900460ff1615151461039e576040517f08c379a00000000000000000000000000000000000000000000000000000000081526004018080602001828103825260248152602001806105136024913960400191505060405180910390fd5b80600460008473ffffffffffffffffffffffffffffffffffffffff1673ffffffffffffffffffffffffffffffffffffffff168152602001908152602001600020819055505050565b60011515600660003373ffffffffffffffffffffffffffffffffffffffff1673ffffffffffffffffffffffffffffffffffffffff16815260200190815260200160002060009054906101000a900460ff1615151461048f576040517f08c379a00000000000000000000000000000000000000000000000000000000081526004018080602001828103825260248152602001806105136024913960400191505060405180910390fd5b6001600660008373ffffffffffffffffffffffffffffffffffffffff1673ffffffffffffffffffffffffffffffffffffffff16815260200190815260200160002060006101000a81548160ff02191690831515021790555050565b6000600360019054906101000a900467ffffffffffffffff1667ffffffffffffffff1690509056fe7468652061646472657373206e6f7420616c6c6f776564207468652073746f7261676521a265627a7a72315820da06f6fd28a7c4803c68beb8dc12c490a4c14246056a52a40fe36741a1f32cda64736f6c63430005100032",
  "source": "pragma solidity ^0.5.16;\n\ncontract TokenStorage {\n    bool private inited = false;\n    string private _symbol = \"LDP\";\n    string private _name = \"ldpToken\";\n    uint8 private _decimals = 8;\n    uint64 private _totalSupply = 1000000;\n    mapping (address => uint) private _balanceOf;\n    mapping (address => mapping (address => uint)) private _allowances;\n    // allownce access\n    mapping(address => bool) private accessAllowed;\n    \n    constructor()public{\n        accessAllowed[msg.sender] = true;\n        _balanceOf[tx.origin] = _totalSupply;\n    }\n\n    modifier isPlatform() {\n        require(accessAllowed[msg.sender] == true,\"the address not allowed the storage!\");\n        _;\n    }\n\n    function allowAccess(address _address) isPlatform public {\n        accessAllowed[_address] = true;\n    }\n    \n    function denyAccess(address _address) isPlatform public {\n        accessAllowed[_address] = false;\n    }\n\n    function getTotalSupply() public view returns (uint) {\n        return _totalSupply;\n    }\n\n    function getBalanceOf(address _addr) public view returns (uint){\n        return _balanceOf[_addr];\n    }\n    // set Transfer value\n    function setBalanceOf(address _addr ,  uint _value) isPlatform public {\n        _balanceOf[_addr] =  _value;\n    }\n}",
  "sourcePath": "/Users/fieldlee/Downloads/Cita/SolidtyToJson/contracts/TokenStorage.sol",
  "compiler": {
    "name": "solc",
    "version": "0.5.16+commit.9c3226ce.Emscripten.clang"
  },
  "schemaVersion": "3.1.0",
  "updatedAt": "2020-05-19T01:27:31.751Z",
  "devdoc": {
    "methods": {}
  },
  "userdoc": {
    "methods": {}
  }
}